:020000040800F2
:10000000A0180020D1010008250D0008F102000809
:10001000A50C00082B080008391500080000000096
:10002000000000000000000000000000E3010008E4
:10003000E5010008000000003F0200080910000868
:10004000EB010008EB010008EB010008EB010008E0
:10005000EB010008EB010008EB010008EB010008D0
:10006000EB010008EB010008EB010008EB010008C0
:10007000EB010008EB010008EB010008EB010008B0
:10008000EB010008EB01000891050008EB010008F6
:10009000EB010008EB010008EB010008EB01000890
:1000A000EB010008EB010008EB010008EB01000880
:1000B000EB01000881100008EB010008EB010008CB
:1000C000EB010008EB010008EB010008EB01000860
:1000D000EB0100082D140008EB010008991400083A
:1000E000EB010008EB010008EB010008EB01000840
:1000F000EB010008EB010008EB010008EB01000830
:10010000EB010008EB010008EB010008EB0100081F
:10011000EB010008EB010008EB010008EB0100080F
:10012000EB010008EB010008EB010008EB010008FF
:1001300000F002F800F03CF80AA090E8000C8244BD
:100140008344AAF10107DA4501D100F031F8AFF29A
:10015000090EBAE80F0013F0010F18BFFB1A43F0A5
:10016000010318476837000088370000103A24BFA1
:1001700078C878C1FAD8520724BF30C830C144BF0C
:1001800004680C607047000000230024002500264E
:10019000103A28BF78C1FBD8520728BF30C148BFEA
:1001A0000B6070471FB503F06BF91FBD10B510BD94
:1001B00000F0AFF91146FFF7F5FF00F0E4F900F0A9
:1001C000CDF903B4FFF7F2FF03BC00F0D5F900004E
:1001D0000948804709480047FEE7FEE7FEE7FEE7DB
:1001E000FEE7FEE7FEE7FEE7FEE7FEE70448054917
:1001F000054A064B70470000251000083101000831
:10020000A0100020A0180020A0140020A01400209E
:10021000EFF3108072B6704780F310887047424A3F
:100220001368012B04D04FF0010313603F4A1060A4
:100230003F4A11603F484FF0805101607047EFF333
:10024000108272B63848016851B34FF00001016066
:100250003648016891B1EFF309811EF0100F08BF15
:1002600021ED108B21E9F00F4FF000041EF0100F6C
:1002700008BF012441F8044D006801602C49096859
:10028000096808C9B1E8F00F002B18BFB1EC108B5A
:1002900081F309884EF0100E002B18BF2EF0100EBF
:1002A00082F310884EF0040E704721490860EFF386
:1002B000148222F0040282F314881C494FF00000DB
:1002C000086019494FF0010008601B481B49D0F82D
:1002D000002041EA0201016016484FF080510160A0
:1002E00017480068006880F3088861B662B67047F6
:1002F0001EF0040F0CBFEFF30880EFF3098020E934
:10030000F00F40F804ED40F804ED1EF0040F0CBFB0
:1003100080F3088880F3098800B502F0B3F85DF82F
:1003200004EB4EF0040E7047D0000020C8000020FF
:10033000CC00002004ED00E020ED00E00000FFFF15
:1003400008ED00E040EA0103024630B59B0710D1FA
:100350004FF0013400E008C208C91D1B9D4315EA97
:10036000C41FF8D013F0FF0102F8011B0DD01B0AC7
:10037000F8E711F8013B002B02F8013B05D011F81A
:10038000013B002B02F8013BF3D130BD032A40F2C0
:10039000308010F0030C00F0158011F8013BBCF127
:1003A000020F624498BF11F801CB00F8013B38BF3F
:1003B00011F8013BA2F1040298BF00F801CB38BF4D
:1003C00000F8013B11F0030300F04A80083AC0F046
:1003D000088051F8043B083A51F804CBA0E8081013
:1003E000F5E7121D5CBF51F8043B40F8043BAFF346
:1003F0000080D20724BF11F8013B11F801CB48BFA0
:1004000011F8012B24BF00F8013B00F801CB48BFD5
:1004100000F8012B70474FF000020429C0F0128051
:1004200010F0030C00F05080CCF1040CBCF1020F72
:1004300018BF00F8012BA8BF20F8022BA1EB0C017C
:1004400000F042B85FEAC17C24BF00F8012B00F83D
:10045000012B48BF00F8012B704770477047704769
:1004600010B5203AC0F00B80B1E81850203AA0E84F
:100470001850B1E81850A0E81850BFF4F5AF5FEA83
:10048000027C24BFB1E81850A0E8185044BF18C936
:1004900018C0BDE810405FEA827C24BF51F8043BDD
:1004A00040F8043B08BF7047D20728BF31F8023B31
:1004B00048BF11F8012B28BF20F8023B48BF00F8C5
:1004C000012B70474FF0000200B513469446964644
:1004D000203922BFA0E80C50A0E80C50B1F1200157
:1004E000BFF4F7AF090728BFA0E80C5048BF0CC005
:1004F0005DF804EB890028BF40F8042B08BF704763
:1005000048BF20F8022B11F0804F18BF00F8012BD4
:100510007047754600F02CF8AE4605006946534614
:1005200020F00700854618B020B5FFF75FFEBDE854
:1005300020404FF000064FF000074FF000084FF04A
:10054000000B21F00701AC46ACE8C009ACE8C009DB
:10055000ACE8C009ACE8C0098D46704710B5044648
:10056000AFF300802046BDE81040FFF72ABE000030
:10057000004870474010002001491820ABBEFEE73C
:1005800026000200704710B502F031FC002010BDBB
:100590002DE9F041314C0421204601F0A4FA02215A
:1005A000204601F0A0FA2E4D2E482B886A88048838
:1005B000991A402C1ED200EB4404A180048800EB61
:1005C0004404A4F88430048800EB4404A4F8042113
:1005D000AC88058800EB4505A5F884410488641CB7
:1005E00004804488641CA4B24480402C04D9402474
:1005F000448001E000240480194840F6CD75183885
:10060000C4686C4301EBC10505EB01152544046882
:1006100004EBC40606EB0414254440F6CD74C56013
:10062000654303EBC30404EB03142E19446804EB85
:10063000C40707EB04143444046102EBC20404EB66
:1006400002142544846804EBC40606EB04142C440D
:1006500044618260C0E90013BDE8F08100240140DC
:100660001C000020D400002010B5144C88B00021DC
:10067000204601F005FB1248002100908DF818106B
:1006800001208DF8190000020190800003900320E2
:1006900004900C4A4FF40050029205908DF81A1005
:1006A0006A46204601F00EFB0021204601F0D8FAF0
:1006B0000021204601F0B4FA08B010BD000002404D
:1006C0004C2401401C00002070B5154C48F2F81372
:1006D00004222821204601F090FC124D4EF2923364
:1006E00004221021284601F088FC40F6040304226D
:1006F0001021204601F081FC4FF41F4304221021F9
:10070000284601F07AFC631404221021064801F007
:1007100074FCBDE870400121044801F0BFBC00003A
:1007200000080140000C01400010014000023000B0
:1007300010B572B64FF00060014601F05BFD62B685
:1007400000F0C4F8FFF7C0FF01F04EFA01F00EF917
:1007500000F0AEF800F0A6FCBDE8104000F07CB858
:100760007FB5052403204FF400751549CDE9001528
:10077000CDE902040023134A13A1194802F030F90D
:1007800030B918A1002000F075FB154802F084F97B
:100790000120CDE902041C49CDE9001510480023D1
:1007A0001A4A1BA1B03002F01BF9002806D104B090
:1007B0000B48BDE87040B03002F06EB97FBD00005C
:1007C000F40200209D0C00084D61696E5461736B4A
:1007D0005F7468726561645F656E747279000000B1
:1007E000F4060020434E544C5F7468726561645F88
:1007F000656E74727920696E6974205375636365E0
:1008000073736564200A0D00F4040020610D000874
:1008100050435F43414E5F7468726561645F656E0B
:1008200074727900008840BA7047FEE770B5094DD0
:10083000FF22134605F5807605E010F8014B544081
:100840002A5D5A40335D491E89B2F6D243EA02203E
:1008500070BD00008A3400080549064A002083184C
:10086000401C93F800380B700A28F8D3704700003A
:10087000EA02002000F0010870B501F02BFB0A4DE0
:1008800072B60A4E304601F0E1FA48B90024A019C8
:10089000296801F03BFB002805D1641D0A2CF6D322
:1008A00001F0C0FA62B670BDEA02002000F801084B
:1008B00005484AF655210022018082804FF480616C
:1008C00041800281C1807047EA02002010B540F2E9
:1008D000026001F03FFD40F2036001F03BFD40F299
:1008E000096001F037FD4FF4C06001F033FD4FF4B3
:1008F000A06001F02FFDBDE81040012001F084BC94
:100900002DE9F043334F91B04FF0000987F809907B
:10091000387A0324082801D07C7220E03868801CD3
:10092000FFF780FF06463868001DFFF77BFF0500D4
:10093000F2D0202DF0D80024E84609E008EB44016D
:10094000304600F0E1F840B1761C641CB6B2A4B2A7
:10095000AC42F3D3787A40B101E002207872787A21
:1009600000F026F911B0BDE8F08387F810903868E0
:10097000F96800780870387C401CC0B23874396857
:10098000FA6849781154387C6900401CC0B2387448
:10099000FA681154387C4246401C3874002012E03A
:1009A0003C7CFB6812F810101955397C02EB4003AF
:1009B000491CC9B23974FC685B786354397C491CA2
:1009C000401C397480B2A842EAD3397CF86800F040
:1009D00019F9C7E78C08002070B5244D00266E7207
:1009E000287A082801D003202FE02868801CFFF710
:1009F00019FF04462868001DFFF714FF01214FF47A
:100A00007F43B4F5807F0DD008DC072C1CD8184A32
:100A1000984210D11088A140084310E0A4F20112BE
:100A2000062A11D8A4F58074A2B2124C984208D1BB
:100A3000914021800AE048B91088A1408843108085
:100A400004E018B9268001E0022068722868007866
:100A5000002809D0687A18B1BDE8704000F0A8B845
:100A6000BDE8704000F0B8B870BD00008C080020F0
:100A7000260000202400002070B5144C0020607275
:100A8000207A082801D003200FE02068801CFFF79F
:100A9000C9FE05462068001DFFF7C4FE0146284632
:100AA00000F0C4F8012801D00220607220680078AC
:100AB000002809D0607A18B1BDE8704000F078B81D
:100AC000BDE8704000F088B870BD00008C080020C0
:100AD0000C4A106801784078032809D005280BD00B
:100AE00006280BD000290BD00120507200F060B80E
:100AF000002905D0FFF704BFFFF76EBFFFF7BCBFAB
:100B0000704700008C08002030B50022012407281F
:100B10002ED008DC214B07283AD2DFE800F0391B41
:100B20001E21242C27001E4BB0F5817F2AD007DC24
:100B3000B0F5807F21D0A0F58070013828D11EE06B
:100B4000A0F5807003381FD000F20370B0F5803F2D
:100B50001ED11CE0B3F912221AE0B3F90C2217E0FF
:100B6000B3F90E2214E0B3F9142211E00D4800E0AD
:100B70000D4802880CE00D48FBE75A8808E0B3F9FD
:100B8000042005E0DA8803E0B3F9082000E0012240
:100B9000100A08704A70204630BD0000D4000020C2
:100BA000EA0200202400002026000020220000206D
:100BB00008490A68CB6812781A700A68CB685278BC
:100BC00042F080025A70CA689070C868032100F031
:100BD00019B800008C08002030B5094C89B00020FD
:100BE000217A6B46226803E0155C1D54401CC0B29C
:100BF0008142F9D862681846904709B030BD0000BC
:100C00008C08002070B50C460546FFF70FFE010A60
:100C100029552919A41C48700348E1B242682846A6
:100C2000BDE87040104700008C08002070B501241A
:100C300040F20116164DA0F201120BB2B0421CD0C8
:100C400007DC062812D0072812D0B0F5807F1CD10F
:100C500011E0012A13D0022A13D06FF47940C24266
:100C600013D1A1F52A4055380DD00EE0094800E017
:100C70000948018009E0698007E0AB8005E0E98070
:100C800003E02B8101E0FFF7F7FD204670BD000077
:100C9000EA02002024000020260000200A2001F0A3
:100CA00052FEFBE7FEE70000024BD860C3E90012EA
:100CB000704700008C08002070B51749174C4FF0A2
:100CC0000005088820F001000880C0071ED1207AA6
:100CD00004281BD3801E81B22068FFF7A7FD104AAD
:100CE0005080237A21680B4413F8016C13F8023CFE
:100CF00006EB0323834209D108781080627C82428C
:100D000000D018B9487808B1FFF7E2FE217A2068D0
:100D1000FFF781FB257270BD3C0000208C0800208D
:100D20003E00002070470907090E002806DA00F08F
:100D30000F0000F1E02080F8141D704700F1E02062
:100D400080F8001470470000002904D002480172A6
:100D5000024801F04ABD70478C080020540800206A
:100D600011490020012248600870104903464A7466
:100D7000087202460EA1124801F024FD18B111A11B
:100D8000002000F077F8154800F0ECFA4FF47A7480
:100D9000052001F0D8FD2146094801F04CFD00F086
:100DA0003DFB00F0AFFBF3E72C0000208C08002097
:100DB00050435F554152545F4953525F53656D0034
:100DC0005408002050435F4953525F73656D2049BA
:100DD0006E6974204661696C200A0D00490D000897
:100DE0002DE9F04107460B4815460E46007808B934
:100DF00000F0A4FBEFF31184202080F311882A4631
:100E00003146384600F008F8E1B281F31188BDE8B8
:100E1000F0810000240A002070B50E46144900EB52
:100E2000400001EBC0051446E86A183520B10128DE
:100E30000FD0022805D113E0284600F0B3FBA042F2
:100E400001D2002411E022463146284600F0CAFCB7
:100E50000BE0284600F0A6FBA042F4D20446F2E7DD
:100E60003146284600F091FC0446204670BD000043
:100E7000240A00200FB408B504A900916A4603991A
:100E800000F003F801B05DF814FB2DE9F04198B0D3
:100E9000804607A8029040200026CDE90306CDE950
:100EA000056815460C4614F8011B00296FD025294A
:100EB00008D002A800F04AFC05980028F3DA18B020
:100EC000BDE8F08100200122217823291ED02B29A2
:100ED00019D02D2902D0302908D102E040F00100BC
:100EE00001E040F00200641C002AEDD100222178CC
:100EF000A1F130030A2B0CD202EB820201EB420279
:100F0000303A641CF3E740F00400ECE740F00800DE
:100F1000E9E70023CFB22E2F0BD114F8011FA1F166
:100F200030070A2F05D203EB830301EB4303303B69
:100F3000F3E76C290DD068290BD070294AD00BDC5F
:100F4000252914D058292BD063290CD0642911D11C
:100F500012E014F8011FECE773292CD0752917D083
:100F6000782907D11CE02868011D2960017802A8B2
:100F700000F0ECFB641C9FE729680F1D2F600968D7
:100F8000CDE900200A2202A800F017FBF2E72BE0CF
:100F900029680F1D2F600968CDE900200A2206E0AC
:100FA00029680F1D2F600968CDE90020102202A8D2
:100FB00000F066FBDEE72868011D2960076817F866
:100FC000011B0029D6D002A800F0C0FB059800281C
:100FD000F5DACFE72868011D296001680820CDE90E
:100FE000000603461022E2E7059800287FF767AF66
:100FF000049820B1024607A94046FFF7F1FEDDE95B
:101000000410084405905AE704480168491C01602F
:1010100003480168491C016001F050BB000000203A
:1010200028000020134882B0016841F4700101607B
:101030001148016841F001010160416841F08001FF
:101040004160002344F620610093009A521C0092F4
:101050008A42FAD34360C3620168084A11400160C2
:101060004FF41F018160016821F48021016002B00A
:1010700001F0D2BE88ED00E000100240FFFFF6FE56
:1010800010B5074C0121204602F0DBF8002805D0FE
:101090002046BDE81040012102F0D0B810BD00008C
:1010A000000400402DE9F04387B04FF4E06001F008
:1010B00051F940F2017001F04DF940F2027001F077
:1010C00049F900247725DFF8B891ADF80050ADF864
:1010D00004404FF47A77ADF802400297ADF806402D
:1010E0008DF80C406946484602F05EF80126ADF8DE
:1010F0001060ADF81440ADF81840ADF81240ADF8EE
:101100001640ADF81A4004AA0021484601F000FF3D
:1011100000221146484602F00CF8602200214846A1
:1011200001F0E0FF00221146484602F011F8DFF816
:101130005481ADF80050ADF80440ADF8024002977C
:10114000ADF806408DF80C406946404602F02CF898
:10115000ADF81060ADF81440ADF81840ADF812408D
:10116000ADF81640ADF81A4004AA0121404601F03E
:10117000CFFE00220121404601F0DBFF6022012169
:10118000404601F0AFFF00220121404601F0E0FFA0
:101190003D4844F62061B7070068ADF80040B0FB59
:1011A000F1F5681EADF804400290ADF80240ADF8CC
:1011B00006408DF80C406946384601F0F5FFADF861
:1011C0001440ADF8106004AA0021384601F0A0FEDA
:1011D000ADF81440ADF8106004AA0121384601F0C2
:1011E00097FE6C0822460021384601F0A2FF7022CB
:1011F0000021384601F076FF00221146384601F002
:10120000A7FF22460121384601F093FF70220121F9
:10121000384601F067FF00220121384601F098FFAF
:10122000384601F06FFE404601F06CFE484601F082
:1012300069FE384601F0B3FF404601F0B0FF484672
:1012400001F0ADFF114C012304221821204600F0CB
:10125000D4FE022304221821204600F0CEFE0C4CBE
:10126000202304221821204600F0C7FE4023042238
:101270001821204600F0C1FE07B0BDE8F083000051
:101280000008004000040040440000200008014025
:10129000000C014010B500224FF400610B4800F033
:1012A000A7FE0B4C0121204600F0AAFC022120469B
:1012B00000F0A6FC40220221204600F058FD204606
:1012C000BDE81040022100F0ABBC00000008014066
:1012D000000002402DE9F047DFF878900D46064601
:1012E0004FF40068002401224146484600F080FE89
:1012F0002A4631461848FFF749F8184E2A46012178
:10130000304600F034FD0121304600F089FC4FF4F6
:10131000FA75134F05E0641CAC420FD8012001F0B0
:1013200012FB02220121304600F0C5FC0028F2D059
:101330000621384602F06BF80028ECD00121304637
:1013400000F05EFC41464846BDE8F047002200F050
:101350004FBE000000080140E409002000000240E8
:101360000048004070B52749274A0860274901F125
:101370004000FFF799FC40F2127000F0EBFF40F2E2
:10138000036000F0E7FF224D4FF480630322182131
:10139000284600F032FEEC1423460322042128469E
:1013A00000F02BFE1B4D284601F0EAFF4FF41651CA
:1013B000284601F0B7FF0421284602F055F808211D
:1013C000284602F057F801F047FF012202212720AA
:1013D00000F0BCFE4FF44171284602F023F8802152
:1013E000284601F0FFFF4021284601F0F5FF28467E
:1013F00001F0FEFF2146BDE870400022064800F0E3
:10140000F7BD000048000020D5120008A409002004
:10141000000C0140004800400008014010B5FFF7F3
:101420004BFCBDE81040FFF735BF00002DE9F0414F
:10143000154E1449304601F0FFFFA8B1304601F0C7
:101440009BFF124F0221384600F0A0FC104DC0F166
:101450004000C4B2286838B10221384600F0D0FB01
:101460002A6821460B4890470321304601F0CFFF00
:10147000002805D03046BDE8F041032101F0BDBF92
:10148000BDE8F08104030400004800400000024071
:1014900048000020A40900202DE9F041154E144910
:1014A000304601F0C9FFA8B1304601F065FF124F88
:1014B0000221384600F06AFC104DC0F14000C4B271
:1014C000286838B10221384600F09AFB2A68214684
:1014D0000B4890470321304601F099FF002805D0C2
:1014E0003046BDE8F041032101F087BFBDE8F0813F
:1014F00004030400004800400000024048000020AF
:10150000A409002010B50B4C0321204601F07FFFF9
:1015100018B10321204601F070FF0321204601F09D
:1015200076FF002805D02046BDE81040032101F0D9
:1015300064BF10BD00480040FEE7000010B5124C2B
:1015400003202061606111A0A06104F1A800E061A6
:1015500080200021A162206261620CA0E16220660D
:1015600004F59470606610202167C4E91A01616770
:1015700009A1E01DFEF7E6FE08A12046FEF7E2FE07
:101580002020A07110BD0000240A00205465726D57
:10159000696E616C00000000525454005345474787
:1015A000455200000269C1688A4203D88068401A27
:1015B000104400E0501A401E70472DE9FC5F0E00F9
:1015C0008046DDE90C47C6F1000099469246834605
:1015D00000D40846012502E090FBFAF06D1C50454E
:1015E000FADAA94500D94D4624B1002E01DB78076F
:1015F00000D5641EB80702D5B9F1000F0FD0F80767
:101600000DD164B1A5420AD220214046641E00F0EB
:101610009DF8D8F80C000028F3DABDE8FC9FD8F854
:101620000C000028F9DB002E02DA5E462D2102E0D4
:10163000780707D52B21404600F088F8D8F80C0031
:101640000028EADB07F0030002280FD1B9F1000FF0
:101650000CD15CB1A54209D230214046641E00F095
:1016600075F8D8F80C000028F3DAD6E7CDE9004782
:101670004B4652463146404600F002F8CDE70000A6
:101680002DE9F84F8246DDE90A4B012599461746B8
:10169000884608462E4602E0B0FBF7F0761CB842BA
:1016A000FAD2B14500D94E465FEACB7017D1B4B13A
:1016B0005FEA8B7002D5B9F1000F02D020200090B4
:1016C0000BE03020FBE75046641E009900F03EF826
:1016D000DAF80C00002835DB0CB1A642F3D3DAF8B7
:1016E0000C0000282EDBB9F1010F02D9A9F1010984
:1016F00003E0B8FBF5F0B84201D37D43F3E7DFF830
:101700004890B8FBF5F000FB158819F8001050461A
:1017100000F01CF8DAF80C00002803DBB5FBF7F545
:10172000002DEED15FEACB700CD0002C0AD0A6427F
:1017300008D220215046641E00F008F8DAF80C00A8
:101740000028F2DABDE8F88F8A37000810B50446A1
:10175000D4E90130421C934205D323681954A26096
:10176000E068401CE060D4E90102824209D12168AE
:101770002069FFF735FBA168884203D04FF0FF30A6
:10178000E06010BD0020A06010BD2DE9F047C468E6
:101790001746894605464FF000082869A04201D93E
:1017A000061B02E0A968201A0E1AA868761E001B04
:1017B000B04200D80646BE4200D33E466868324674
:1017C00020444946FEF7E2FDA868BF1B3444B044FC
:1017D000B144A04200D10024EC60002FDDD140468E
:1017E000BDE8F0872DE9F04104468846D4E90207B8
:1017F000C51BE168606816460844B54206D94146F3
:10180000FEF7C4FDB819E060BDE8F0812A46414604
:10181000FEF7BCFD761B08EB050132466068FEF75B
:10182000B5FDE660F0E70000002807D00E4910F093
:10183000FF0F04D051FA80F00078401C704710F47C
:101840007F4F04D0C0F30720085C0930704710F4C4
:101850007F0F04D0C0F30740085C1130704701EBE4
:1018600010600078193070479A3700082DE9FC4164
:1018700019460446DDE90837DDE90A652C30406089
:101880000060C4E90E21C4E910373A462321184606
:10189000343400F09AFED4E903014218D4E901017E
:1018A0000D4B121F00F0FAFD2060A6766676002030
:1018B000A562E061E562606120766067A067343C04
:1018C000009023460190054A194604F1640001F096
:1018D00002FA0020BDE8FC814D290008072B000812
:1018E00070B50546002405EBC4002C3000F064FE02
:1018F000641C012CF7DB70BD70B50446FEF788FC54
:10190000D4F8A810054609B1204688472846BDE806
:101910007040FEF781BC816841F0080181608168F8
:101920000907FCD4816841F004018160816849079E
:10193000FCD470471205A2F5801201290BD00229B0
:1019400008D1816B21F44011816302F44011826B54
:10195000114381637047C16A21F47001C16202F4CE
:101960007001C26A1143C1627047000010B540F2B5
:10197000026000F0EFFC40F2096000F0EBFC4FF475
:10198000A06000F0E7FC032000F03EFCFEF76CFED8
:10199000002000F0ADF8284C00220221204600F083
:1019A000F2F801221102204600F0EDF80021204655
:1019B00000F044F8204600F04BF8032201212046B5
:1019C000FFF7B8FF002205231146204600F09CF8DF
:1019D000012205231146204600F096F80222052335
:1019E0001146204600F090F84FF4C0220121204615
:1019F00000F056F801221146204600F036F8022188
:101A0000204600F070F80221204600F059F84FF40B
:101A1000C06000F0E5FB01221146122000F096FBA9
:101A2000204600F01AF84FF47A7000F0DFF82046F4
:101A3000BDE81040FFF76FBF002401400029816816
:101A400002D041F4006101E021F40061816070473F
:101A5000816841F48071816070478168C90703D152
:101A6000816841F0010181607047002A4FEAC1722C
:101A70000AD01AB1826842F48012826089070ED5BA
:101A8000816841F4004109E01AB1826822F48012B1
:101A90008260890703D5816821F400418160704725
:101AA000012909D0022906D1816821F4E041816031
:101AB0008168114381607047816821F46021F6E7F5
:101AC000CA0703D0426842F0400242608A0703D549
:101AD000426842F020024260490703D5416841F064
:101AE00080014160704702688A43026070470000CD
:101AF00004490A6822F470220A600A6802430A60F4
:101B0000704700000424014030B51F24062909D283
:101B1000456B01EB81018C40A54302FA01F42C4393
:101B2000446318E00C290AD2056B891F01EB81017F
:101B30008C40A54302FA01F42C4304630BE0102906
:101B400009D2C56A0C3901EB81018C40A54302FA28
:101B500001F42C43C46207250A2A08D2046902EB67
:101B600042018D40AC438B402343036130BD122AB8
:101B7000FCD2C4680A3A02EB42018D40AC438B4070
:101B80002343C36030BD002A4FEAC15211D0002A5E
:101B900003DA426842F4807242604A0503D5426823
:101BA00042F480624260890715D5816841F00201E4
:101BB00010E0002A03DA426822F4807242604A058B
:101BC00003D5426822F480624260890703D58168A8
:101BD00021F0020181607047024890F8011180F8FD
:101BE00000117047A0080020FFF7F6BF002204E0B4
:101BF0000021491C3229FCD3521C8242F8D3704781
:101C000070B50C46054600F099F840B104EB84002D
:101C100005EB8000816821F00101816070BDFEE765
:101C200070B50C46054600F089F840B104EB84001D
:101C300005EB8000816841F00101816070BDFEE725
:101C400070B50C46054600F079F840B104EB84000D
:101C500005EB8000816821F02001816070BDFEE706
:101C600070B50C46054600F069F840B104EB8400FD
:101C700005EB8000816841F02001816070BDFEE7C6
:101C800070B50D46044600F059F898B105EB850093
:101C900004EB8002906820F00100906000209060CA
:101CA000D060106150616068AA000F219140084324
:101CB000606070BDFEE7006889008A40104000D077
:101CC0000120704770B514460D46064600F036F800
:101CD00050B305EB850006EB800021680161A16827
:101CE0004161218A89B2C1608168E36821F47C5234
:101CF000616819436369134319438160217E012997
:101D0000816812D021F040018160617E01298168E3
:101D10000ED021F080018160A17E002981680AD067
:101D200041F01001816070BDFEE741F04001EBE73A
:101D300041F08001EFE721F01001F3E70246044B88
:101D400001209A4202D1042900D9002070470000E6
:101D50000004024050B100210160416001768160C1
:101D6000C16041760161817641617047FEE770B5DF
:101D700015460C460646FFF7E1FF30B104EB84013F
:101D800006EB8101A8B2C86070BDFEE770B50C46D5
:101D90000546FFF7D3FF28B104EB840005EB800074
:101DA000C06870BDFEE700B5034600F007F85B1E93
:101DB000012802D1002BF8D1042000BD08490020E1
:101DC000CA68D20701D001207047CA68D20601D57F
:101DD00003207047C9684907FBD5022070470000FF
:101DE0000020024000B5034600F008F85B1E012801
:101DF00002D1002BF8D1042000BD000008490020CA
:101E0000CA6CD20701D001207047CA6CD20601D536
:101E100003207047C96C4907FBD5022070470000BA
:101E2000002002400748016941F080010161064934
:101E30000988B1F5007F03D9016D41F0800101658A
:101E40007047000000200240E0F7FF1F70B5044615
:101E50001C481D4D1D4E0088B0F5007F02D91C485E
:101E6000844215D23046FFF79EFF00280FD1286923
:101E700040F0020028616C61286940F04000286150
:101E80003046FFF790FF296921F00201296170BDFA
:101E90003046FFF7A7FF0028F9D1286D40F0020077
:101EA00028656C65E869800700D56C61286D40F095
:101EB000400028653046FFF795FF296D21F00201AB
:101EC000296570BDE0F7FF1F002002400000FF0FF2
:101ED000FFFF070809480169094A0B06094901D5AE
:101EE00042604160084B1B88B3F5007F04D9036D45
:101EF0001B0601D542644164704700000020024087
:101F000023016745AB89EFCDE0F7FF1FF0B504462D
:101F10001748184E184F00880D46B0F5007F02D9BB
:101F20001648844211D23846FFF73DFF00280BD1F6
:101F3000306940F00100306125603846FFF733FF1B
:101F4000316921F001013161F0BD3846FFF74AFFE8
:101F50000028F9D1306D40F0010030652560384629
:101F6000FFF740FF316D21F001013165F0BD000048
:101F7000E0F7FF1F002002400000FF0FFFFF0708EF
:101F800030B5124D104B45F255541A462C60EC6892
:101F9000521E04F0010402D0002CF8D100E04CB92C
:101FA0006960E9685B1E01F0020102D00029F8D1E6
:101FB00002E009B1002030BDC0F30B00A8604AF672
:101FC000AA202860012030BDFFFF0F000030004034
:101FD00002494AF6AA20086070470000003000401D
:101FE000024945F25550086070470000003000403B
:101FF0000AB101617047416170472DE9F04301F07A
:102000000F04CD0602D5042A18D0144300224FF045
:102010000F094FF0010808FA02F51D4019D00768B2
:10202000960009FA06FC27EA0C0704FA06FC4CEABB
:10203000070C282908D0482908D008E0C26B44F0D2
:1020400003041A43C263E1E7456100E00561C0F89B
:1020500000C0521C92B2082ADDD3082208FA02F509
:102060001D4014D047689600203E09FA06FC27EA76
:102070000C0704FA06FC4CEA070C282902D0482970
:1020800002D002E0456100E00561C0F804C0521CC6
:1020900092B2102AE2D3BDE8F0830000F0B5144CF0
:1020A000002801DAE36900E06368450D2E0185B27E
:1020B000C0F30157B540C0F30342032F05D0C60259
:1020C0000AD503269640B34307E023F0E062636835
:1020D00023F0E063636002E0AB4343F0E06201B1F0
:1020E0002A43002801DAE261F0BD6260F0BD000021
:1020F00000000140FEF734FB05214FF47A70FFF732
:102100003FFFFFF76DFF4FF400550B4CFFF760FFEB
:10211000FA2000F018FC002229462046FFF768FF4D
:10212000FA2000F010FC012229462046FFF760FF4C
:10213000FFF74EFFEAE700000010014010B500F085
:102140005FF9BDE81040FFF7D5BF000070B5054648
:1021500022480E46002401682346C1F302210729C4
:102160001AD00168C1F30221062917D00168C1F312
:10217000022105290DD00168C1F30221042910D0E4
:102180000068C0F3022003280ED04FF4A06000F0D6
:1021900027F80224234608E0042306E00124032351
:1021A00003E00324012300E00424C4F1040086407A
:1021B000C3F104010F20C8401040304305F1E02175
:1021C000000181F8000405F01F0101208840690921
:1021D000890001F1E021C1F8000170BD0CED00E0C3
:1021E0000249084302490860704700000000FA05F0
:1021F0000CED00E0024A11400143024801607047C3
:1022000080FFFF1F08ED00E0124B10B55968124A1D
:102210001140DA6A0C2822F0005217D2DFE800F0F1
:1022200006060606160916091010101041EA80313C
:102230000CE020F0040041EA803040F0805105E0DD
:1022400020F00C0041EA803142F000525960DA621D
:1022500010BD000000100240FF3FFFEF70B536A137
:1022600088B036C98DE8360034A1374CD1E9002159
:10227000CDE9042131A10346D1E90021CDE90621B0
:1022800061680020314AC1F3810179B301292DD061
:1022900002292BD16168551001F48031B1F5803FDE
:1022A0000AD1E16A11F0804F00D0294A616801F437
:1022B0000031B1F5003F00D12A4661686568C1F37D
:1022C00083412D0101D541F0100165686D0001D5F4
:1022D00041F020010F2901D2891C06E0A1F10F0570
:1022E0002F2D01D8491C00E03F214A4361686568F1
:1022F000C1F303111DF8011022FA01F1C5F3022503
:1023000004AE6468755D21FA05F5C4F3C22406AE17
:10231000345D21FA04F443B1012B08D0022B08D01C
:10232000032B00D1204608B070BD1046FBE70846DD
:10233000F9E72846F7E70000000000000000000071
:1023400001020304060708090010024000127A0087
:10235000006CDC02054901EB90110A6800F01F03D4
:102360000120984002430A607047000000100240BC
:10237000054901EB90110A6800F01F030120984005
:1023800082430A607047000000100240054901EBDB
:1023900090110A6800F01F030120984002430A6070
:1023A00070470000001002401FB50A4C14230A2297
:1023B0004FF40071A4F500708DE80F000023064A69
:1023C00006A1204600F00CFB04B02046BDE81040FA
:1023D00000F062BB600D00203D2100086D61696E58
:1023E0000000000070B5044C044D02E020688047F6
:1023F000241DAC42FAD370BDC0380008C4380008B0
:1024000070B5044C044D02E020688047241DAC42A6
:10241000FAD370BDC4380008C838000810B5FDF7FD
:10242000F7FE044A5188491C5180BDE81040FDF771
:10243000F3BE0000A400002010B5FDF7E9FE0B4C30
:102440006188491E09B2618000290ADC002161808F
:10245000FDF7E2FE6068002807D0BDE8104000F0FC
:1024600037B9BDE81040FDF7D7BE10BDA40000206D
:1024700010B500F027FDFEF75BF9BDE81040FFF74F
:10248000B1BF0000044910B50968283011B1884770
:10249000002800D0FEE710BDC400002070B505463E
:1024A000121D22F0070044380A4C0646002240F86C
:1024B0002240521C112AFAD3416200218162C1627A
:1024C0004FF0807200F134040264016384E82A0052
:1024D000316070BDEFBEADDE10B5FDF799FE044A68
:1024E0001178491C1170BDE81040FDF795BE000041
:1024F0005000002010B5FDF78BFE044A1178491EEC
:102500001170BDE81040FDF787BE000050000020AC
:102510002DE9F041054614460E46084600F0D2FA71
:1025200006F12C07ACB1012C17D12C680DE096F800
:102530004D1094F82120A4F12C00914204D2394688
:102540002C3000F01BF802E02468AC42EFD1AC4222
:1025500003D13946284600F011F80020BDE8F0818B
:102560000268516002680A60016048607047026852
:10257000516002680A6001604860704742681160FB
:1025800042684A604160086070470168814201D139
:1025900001207047002070470168814201D101206D
:1025A000704700207047D0E900124A60D0E900125D
:1025B0001160406000607047D0E900124A60D0E9C5
:1025C0000012116040600060704710B50346CCB245
:1025D000042A19D3810717D1194644EA042343EA90
:1025E000034306E008C1103A08C141F8083B41F82E
:1025F000043C102AF6D201E008C1121F042AFBD2C3
:102600000B4601E003F8014B521EFBD210BD10B582
:102610000446002084F82000FDF7FAFDF4E90912D1
:102620004A60D4E90012116064602460BDE8104083
:10263000FDF7F2BD074A002102EB01131B7883422C
:1026400002D102EB01107047491C0529F4DB002080
:1026500070470000540000202DE9F0410546174660
:102660000E460846FFF7E6FF0446FFF7D7FE211D9A
:10267000606800E000688842FCD1FFF7DDFE46F0AC
:10268000800085F8200020223946284600F00CF909
:10269000FDF7BEFD54F8041F24354D602168296004
:1026A00025606C60BDE8F041FDF7B6BD90F82000F4
:1026B000000601D5012070470020704710B5FFF7D4
:1026C0000BFF00F067FABDE81040FFF713BF0000F2
:1026D00070B5FDF79DFD114C05466088B0B9A06846
:1026E000FFF7A2F80E49401E626851F830102C39ED
:1026F00091420BD020700B486160007801F13401E9
:10270000002802F1340006D0FDF789FD2846BDE817
:102710007040FDF781BDFDF782FDF7E7A4000020C2
:10272000400F00205000002010B50446FDF770FD5A
:10273000024694F84C000E4920F00F00401C84F82B
:102740004C0094F84D0001EBC00104F12C004B68E3
:1027500018604B68236348600648E162216D836816
:1027600019438160BDE810401046FDF755BD0000DB
:10277000400F0020A400002070B50546FDF748FD7D
:1027800005F12C040146D4E900024260D4E90002BC
:1027900010602C63EC6295F84D00084A02EBC00013
:1027A0000268824204D106482B6D82689A43826097
:1027B000BDE870400846FDF72FBD0000400F002027
:1027C000A40000202DE9F04116460A461F460546A2
:1027D0000221FFF741FF05F12C042C63EC62AE8669
:1027E00085F821700020BDE8F08170B50446002511
:1027F000FDF70EFD064604F12C00FFF7C6FE38B1CA
:10280000A08E4FF6FF7188420FD2401CA08604E0D4
:10281000E06A2C3800F0FCF801253046FDF7FCFC9E
:102820000DB1FFF755FF002070BD3046FDF7F4FCF9
:102830006FF0020070BD73B50446FDF7E9FC064673
:10284000A08E28B1401EA0863046FDF7E5FC22E0B0
:10285000019810B300F0FAF805460020A86494F837
:102860002120294604F12C00FFF752FE0198002890
:1028700009DD05F1640001AA0021044600F0EEF92B
:10288000204600F047FA3046FDF7C6FCFFF720FF70
:10289000A86C002800D100207CBD3046FDF7BCFCB0
:1028A0006FF001007CBD704710B5002A07D00346C9
:1028B00011F8014B03F8014B2CB1521EF8D110BD99
:1028C00003F8011B00E00021521EF9D110BD0000E9
:1028D00010B50A4A00230A4C5380184604EBC00185
:1028E000401C496009602028F8DB1F201070034855
:1028F00053600C3093604060006010BDA400002065
:10290000400F002010B5074CA068FEF78DFF064968
:10291000401E51F830002C386060BDE81040343063
:10292000FDF7C3BCA4000020400F0020044A002093
:1029300002EBC001401C49600960F9D070470000FB
:10294000BC000020704700F087B8000070B5134845
:102950000468FDF75DFC05462046FEF7CDFF2046E6
:10296000FFF70AFF042084F84C0004F1640000F033
:102970009CF92046FFF79AFE01280BD004F12C01A8
:102980000748FFF7EDFDFFF7A3FE2846BDE87040BE
:10299000FDF742BC2046FFF73AFEF4E7A80000200E
:1029A000B0000020FEE700001FB5094820231F22C9
:1029B00080218DE80F000023064A07A1B03800F0FF
:1029C0000FF804B00248BDE81040B03800F064B819
:1029D000C00E0020A52900087469646C6500000021
:1029E0002DE9FF5F92460EAA0F4692E870010A4653
:1029F000994683460121FFF72FFE8DE870014B4673
:102A0000524639465846FEF731FF04B0BDE8F09F04
:102A100070B5044690F84C0000F00F00022802D078
:102A20004FF0FF3070BDFDF7F3FB054604F12C00BD
:102A3000FFF7B9FD04F1640000F0B8F92846FDF78E
:102A4000EBFB2046FFF770FE002070BD01480068D8
:102A500070470000A8000020F1B5FDF7D9FB05463E
:102A60000C480468204600F02DF804F164006A4622
:102A70000021064600F0F2F8304600F04BF92846F7
:102A8000FDF7CAFBFFF724FEA06C801C00D1A064F8
:102A90000020F8BDA800002010B590F84E100122CB
:102AA00080F84D108A400221026580F84C10FFF733
:102AB000AFFF0348006808B1FFF70AFE002010BD11
:102AC000A800002070B5044690F84C0000F00F00FC
:102AD000012802D04FF0FF3070BDFDF799FB05468D
:102AE0002046FFF749FE94F84C0020F00F00801CB0
:102AF00084F84C0004F1640000F058F92846FDF712
:102B00008BFB002070BD10B504466FF00100A0647F
:102B100004F12C00FFF747FD2046FFF705FEBDE856
:102B20001040FFF7D5BD000070B5FDF771FB0646FC
:102B30001348046894F84C0000F00F00012819D1E4
:102B4000D4E90B01884215D004F12C000546FFF7AB
:102B50002AFD94F84D000B4901EBC00041680D605F
:102B600041686960456028603046FDF755FBFFF716
:102B7000AFFD02E03046FDF74FFB002070BD0000C6
:102B8000A8000020400F00200148006870470000A6
:102B90004C000020094810B50168491C0160FFF78E
:102BA00055FF016E491E016603D1C16D0166FFF735
:102BB000BBFFBDE8104000F003B800004C0000204F
:102BC0002DE9FC41CDF804D0CDF800D0FFF7DCFFB3
:102BD0000646FDF71DFB054633E01F486FF0004138
:102BE000046860692C3C301A88422FD22046FEF7D8
:102BF00077FE94F82100810703D420F0010084F8C7
:102C0000210004F12C010F466846FFF7B0FCD4E91F
:102C10000D108847FFF7B8FF06466846FFF7BCFC73
:102C200078B93846FFF7C8FC94F82100810708D529
:102C3000C10706D020F0010084F82100204600F0F2
:102C400069F80548FFF7A8FC0028C6D02846FDF71C
:102C5000E3FABDE8FC810000BC00002070B5154619
:102C60000E460446FDF7D4FA052E1AD2DFE806F028
:102C70000503080D1300E16B12E02968E16310E021
:102C800014F8211F21F0020103E014F8211F41F084
:102C90000201217005E094F82110C90700D001213C
:102CA0002960FDF7B9FA002070BD70B50446FDF744
:102CB000AFFA05462046FEF713FE94F8210020F0F7
:102CC000010084F821002846FDF7A6FA2046FFF708
:102CD0009EFC002070BD2DE9F0411646DDE9065846
:102CE0000A461F4604460A21FFF7B6FC28F00101F8
:102CF00084F821100021C4E90F51C4E90D6704EBE9
:102D0000C1002C30491C406000600129F7DBBDE8A0
:102D1000F08100002DE9F8430446FDF779FA80467A
:102D20002046FEF7DDFD94F8210020F0010084F834
:102D30002100FFF729FFE16B1B4F4318236400229A
:102D40006D4600970CE00668A6EBC20149699942FE
:102D500004D0C91A6FF0004C614508D345F82260D1
:102D600007EBC20155F8220049688842EBD11AB13D
:102D700005EB820108304860521CF1D00A48001F60
:102D80000168491C016004F12C010098FFF7EFFB7A
:102D900014F8210F40F0010020704046FDF73CFA86
:102DA0000020BDE8F8830000BC00002070B5044698
:102DB00090F82100C0070FD0FDF72AFA05462046FB
:102DC000FEF78EFD14F8210F20F001002070284638
:102DD000FDF722FA002070BD4FF0FF3070BD0020DB
:102DE000704700207047002070470020704710B5E2
:102DF000FDF70EFAFFF73CFBFFF755FDFFF796FDD9
:102E0000FFF766FDFFF7D0FAFFF79CFDFFF7CCFD5B
:102E1000FFF778FD002010BD26480021026842F02F
:102E2000010202604FF4A0630268491C12F0020F15
:102E300001D19942F8D10168890700D4FEE7C16940
:102E400041F08051C1611C490A6842F440420A6065
:102E50004268426042684260426842F48062426076
:102E60004268164B1A4042604268154B1A43426052
:102E7000026842F08072026002689201FCD50A6822
:102E800042F480320A604A68D203FCD50A6842F4F0
:102E900000320A604A689203FCD5416821F00301C0
:102EA0004160416841F00201416041680907FCD579
:102EB000704700000010024000700040FFFFC3B7E1
:102EC0000000340870B50E484FF47A710068B0FB0A
:102ED000F1F0401EB0F1807F11D24FF0E02460612C
:102EE00065170F212846FDF71EFF0020A06107206F
:102EF00020612846BDE870400021FDF714BFFEE7C1
:102F000044000020016841F080010160704700002A
:102F100030B5724B724C41B301295ED002297DD08D
:102F200003297CD1016A21F480510162C16921F435
:102F30004071C161016A158841EA05310162016A87
:102F400021F400510162016A958841EA053101626C
:102F5000984201D0A04262D1416821F48041416091
:102F60004168128941EA821177E0016A21F001018A
:102F70000162816921F003018161016A1588294399
:102F80000162016A21F002010162016A9588294308
:102F90000162984201D0A04260D1016A21F004018F
:102FA0000162016A538819430162016A21F0080134
:102FB0000162016AD38819430162416821F480717A
:102FC00041604168138919434160416821F40071EF
:102FD00041604168528911433FE0016A21F01001CC
:102FE0000162816921F440718161016A158841EAB9
:102FF00005110162016A21F020010162016A9588D0
:1030000041EA05110162984201D0A04226D1016A2D
:1030100021F040010162016A538801E01FE01DE0D8
:1030200041EA03110162016A21F080010162016A33
:10303000D38841EA03110162416821F48061416053
:103040004168138941EA83014160416821F40061CC
:1030500041604168528941EA8201416030BD016AA4
:1030600021F480710162C16921F00301C161016A2B
:10307000158841EA05210162016A21F400710162AB
:10308000016A958841EA05210162984201D0A04277
:10309000E4D1016A21F480610162016A538841EA46
:1030A00003210162016A21F400610162016AD3888F
:1030B00041EA03210162416821F480514160416885
:1030C000138941EA03114160416821F400514160D4
:1030D0004168528941EA0211BFE70000002C01401B
:1030E0000034014071B1012913D002291AD00329FB
:1030F00007D1C16921F4E041C161C16941EA0221FE
:10310000C1617047816921F070018161816911435A
:1031100006E0816921F4E0418161816941EA02218F
:1031200081617047C16921F07001C161C1691143BA
:10313000E6E739B1012907D0022907D0032900D1D8
:10314000026470474263704782637047C26370478E
:1031500071B1012913D002291AD0032907D1C169FD
:1031600021F40061C161C16941EA0221C161704776
:10317000816921F0080181618169114306E081695B
:1031800021F400618161816941EA02218161704716
:10319000C16921F00801C161C1691143E6E7016815
:1031A00041F001010160704730B50A8882621C4A13
:1031B0001C4B90420DD0B0F1804F0AD01A4CA04267
:1031C00007D01A4CA04204D0194CA04201D098421A
:1031D0000BD1046824F07004046004684D882C430B
:1031E000046004688D882C4304608C68C462114CB0
:1031F000A0420AD0104CA04207D0046824F44074C6
:1032000004600468CD882C430460904201D0984249
:1032100001D1097B0163416941F00101416130BD88
:10322000002C014000340140000400400008004030
:10323000000C00400010004000140040C943016130
:103240007047C26800690A40084202D00AB10120F2
:1032500070470020704700002DE9F04387B04FF41D
:10326000A060FFF777F8DFF8B09002214846FEF73C
:1032700007FD6846FEF76EFD01214846FEF7C0FCDB
:1032800002214846FEF7BCFC002424488DF81A4071
:1032900001250290224F8DF8195040260097CDE964
:1032A00003468DF818404FF440586A4602214846BC
:1032B000CDF814800194FEF705FD02214846FEF783
:1032C000BFFC01214846FEF7DBFC6846FEF742FDE5
:1032D00012488DF81A50403002908DF8195000971E
:1032E000CDE903468DF818406A4601214846CDF8DD
:1032F00014800194FEF7E6FC01214846FEF780FCAD
:1033000002214846FEF78CFC4021381F00F064F88B
:1033100007B0BDE8F083000000000240A4090020CF
:103320000448004070B5124A04460D460020A11A18
:10333000131594421AD005DC0E49611816D0994233
:1033400008D113E0994211D0B1F56C4F02D103209E
:10335000FEF784FF00EB5500B0FBF5F04FF6F0717F
:10336000014000F00F021143A16070BD0220EFE7A1
:10337000004C004000BCFFBF4068C0F3080070472D
:10338000134A10B5811A1315904213D007DC114966
:1033900040180CD098421AD140F212440FE09942E2
:1033A0000BD0B1F56C4F12D140F20E3407E040F271
:1033B000114404E040F2134401E040F2144420467A
:1033C000FEF7E4FF2046BDE81040FEF7D1BF10BD78
:1033D000004C004000BCFFBF426922F040020A439B
:1033E00042617047426922F080020A43426170479D
:1033F000C16841F40051C160704700EB9110026850
:1034000001F01F03012199408A430260704700EBDD
:103410009110006801F01F0201219140084000D086
:103420000120704700EB9110026801F01F03012199
:1034300099400A430260704730B5C1F3891282583F
:1034400000EB915001F01F05012404FA05F3006818
:103450001A40C1F3044104FA01F3184202D00AB140
:10346000012030BD002030BDC26822F004020A43B2
:10347000C2607047C26822F008020A43C260704707
:103480004FF04070E1EE100A704700C1814001C06A
:10349000804101C0804100C1814001C0804100C124
:1034A000814000C1814001C0804101C0804100C114
:1034B000814000C1814001C0804100C1814001C004
:1034C000804101C0804100C1814001C0804100C1F4
:1034D000814000C1814001C0804100C1814001C0E4
:1034E000804101C0804100C1814000C1814001C0D4
:1034F000804101C0804100C1814001C0804100C1C4
:10350000814000C1814001C0804101C0804100C1B3
:10351000814000C1814001C0804100C1814001C0A3
:10352000804101C0804100C1814000C1814001C093
:10353000804101C0804100C1814001C0804100C183
:10354000814000C1814001C0804100C1814001C073
:10355000804101C0804100C1814001C0804100C163
:10356000814000C1814001C0804101C0804100C153
:10357000814000C1814001C0804100C1814001C043
:10358000804101C0804100C1814000C0C101C3032E
:1035900002C2C60607C705C5C404CC0C0DCD0FCFAB
:1035A000CE0E0ACACB0BC90908C8D81819D91BDB1B
:1035B000DA1A1EDEDF1FDD1D1CDC14D4D515D7176B
:1035C00016D6D21213D311D1D010F03031F133F31B
:1035D000F23236F6F737F53534F43CFCFD3DFF3F6B
:1035E0003EFEFA3A3BFB39F9F83828E8E929EB2B9B
:1035F0002AEAEE2E2FEF2DEDEC2CE42425E527E72B
:10360000E62622E2E323E12120E0A06061A163A39A
:10361000A26266A6A767A56564A46CACAD6DAF6F2A
:103620006EAEAA6A6BAB69A9A86878B8B979BB7B9A
:103630007ABABE7E7FBF7DBDBC7CB47475B577B7EA
:10364000B67672B2B373B17170B05090915193531A
:10365000529296565797559594549C5C5D9D5F9FEA
:103660009E5E5A9A9B5B99595898884849894B8B1A
:103670008A4A4E8E8F4F8D4D4C8C448485458747AA
:103680004686824243834181804000070E091C1B0D
:103690001215383F363124232A2D70777E796C6BD2
:1036A0006265484F464154535A5DE0E7EEE9FCFB42
:1036B000F2F5D8DFD6D1C4C3CACD90979E998C8B32
:1036C0008285A8AFA6A1B4B3BABDC7C0C9CEDBDCA2
:1036D000D5D2FFF8F1F6E3E4EDEAB7B0B9BEABAC92
:1036E000A5A28F88818693949D9A2720292E3B3C02
:1036F00035321F18111603040D0A5750595E4B4CF2
:1037000045426F68616673747D7A898E8780959271
:103710009B9CB1B6BFB8ADAAA3A4F9FEF7F0E5E251
:10372000EBECC1C6CFC8DDDAD3D4696E67607572C1
:103730007B7C51565F584D4A4344191E17100502B1
:103740000B0C21262F283D3A33344E494047525521
:103750005C5B7671787F6A6D64633E393037222511
:103760002C2B0601080F1A1D1413AEA9A0A7B2B581
:10377000BCBB9691989F8A8D8483DED9D0D7C2C571
:10378000CCCBE6E1E8EFFAFDF4F3303132333435F7
:1037900036373839414243444546000001000200B3
:1037A000010003000100020001000400010002000A
:1037B00001000300010002000100050001000200F9
:1037C00001000300010002000100040001000200EA
:1037D00001000300010002000100060001000200D8
:1037E00001000300010002000100040001000200CA
:1037F00001000300010002000100050001000200B9
:1038000001000300010002000100040001000200A9
:103810000100030001000200010007000100020096
:103820000100030001000200010004000100020089
:103830000100030001000200010005000100020078
:103840000100030001000200010004000100020069
:103850000100030001000200010006000100020057
:103860000100030001000200010004000100020049
:103870000100030001000200010005000100020038
:103880000100030001000200010004000100020029
:1038900001000300010002000100303132333435F1
:1038A00036373839616263646566003031323334EB
:1038B000353637383941424344454600EB2D000840
:1038C000E32D0008DF2D0008E72D0008EC38000884
:1038D00000000020D40000006C010008C03900087E
:1038E000D4000020CC170000880100080000000070
:1038F00000000000000000000000000000000000C8
:1039000000000000000000000000000000000000B7
:1039100000000000000000000000000000000000A7
:103920000000000000000000000000000000000097
:10393000000E27070000000000000000000000004B
:10394000010000005800002058000020B0000000D6
:10395000020000006800002068000020380000001D
:1039600004000000780000207800002038000000EB
:1039700005000000880000208800002048000000AA
:103980000A00000098000020980000204400000079
:103990000000000000000000000000000000000027
:1039A0000000000000000000000000000000000017
:1039B0000000000000000000000000000000000007
:0400000508000131BD
:00000001FF
