:020000040800F2
:1000000048190020D1010008B10F0008F1020008D2
:10001000310F00083B080008091600080000000026
:10002000000000000000000000000000E3010008E4
:10003000E5010008000000003F020008C9120008A6
:10004000EB010008EB010008EB010008EB010008E0
:10005000EB010008EB010008EB010008EB010008D0
:10006000EB010008EB010008EB010008EB010008C0
:10007000EB010008EB010008EB010008EB010008B0
:10008000EB010008EB01000891050008EB010008F6
:10009000EB010008EB010008EB010008EB01000890
:1000A000EB010008EB010008EB010008EB01000880
:1000B000EB01000841130008EB010008EB01000808
:1000C000EB010008EB010008EB010008EB01000860
:1000D000EB010008FD140008EB0100086915000899
:1000E000EB010008EB010008EB010008EB01000840
:1000F000EB010008EB010008EB010008EB01000830
:10010000EB010008EB010008EB010008EB0100081F
:10011000EB010008EB010008EB010008EB0100080F
:10012000EB010008EB010008EB010008EB010008FF
:1001300000F002F800F03CF80AA090E8000C8244BD
:100140008344AAF10107DA4501D100F031F8AFF29A
:10015000090EBAE80F0013F0010F18BFFB1A43F0A5
:10016000010318477C3B00009C3B0000103A24BF71
:1001700078C878C1FAD8520724BF30C830C144BF0C
:1001800004680C607047000000230024002500264E
:10019000103A28BF78C1FBD8520728BF30C148BFEA
:1001A0000B6070471FB503F075FB1FBD10B510BD88
:1001B00000F0AFF91146FFF7F5FF00F0E4F900F0A9
:1001C000CDF903B4FFF7F2FF03BC00F0D5F900004E
:1001D0000948804709480047FEE7FEE7FEE7FEE7DB
:1001E000FEE7FEE7FEE7FEE7FEE7FEE70448054917
:1001F000054A064B70470000E5120008310100086F
:1002000048110020481900204815002048150020FA
:10021000EFF3108072B6704780F310887047424A3F
:100220001368012B04D04FF0010313603F4A1060A4
:100230003F4A11603F484FF0805101607047EFF333
:10024000108272B63848016851B34FF00001016066
:100250003648016891B1EFF309811EF0100F08BF15
:1002600021ED108B21E9F00F4FF000041EF0100F6C
:1002700008BF012441F8044D006801602C49096859
:10028000096808C9B1E8F00F002B18BFB1EC108B5A
:1002900081F309884EF0100E002B18BF2EF0100EBF
:1002A00082F310884EF0040E704721490860EFF386
:1002B000148222F0040282F314881C494FF00000DB
:1002C000086019494FF0010008601B481B49D0F82D
:1002D000002041EA0201016016484FF080510160A0
:1002E00017480068006880F3088861B662B67047F6
:1002F0001EF0040F0CBFEFF30880EFF3098020E934
:10030000F00F40F804ED40F804ED1EF0040F0CBFB0
:1003100080F3088880F3098800B502F0BDFA5DF823
:1003200004EB4EF0040E7047C4000020BC00002017
:10033000C000002004ED00E020ED00E00000FFFF21
:1003400008ED00E040EA0103024630B59B0710D1FA
:100350004FF0013400E008C208C91D1B9D4315EA97
:10036000C41FF8D013F0FF0102F8011B0DD01B0AC7
:10037000F8E711F8013B002B02F8013B05D011F81A
:10038000013B002B02F8013BF3D130BD032A40F2C0
:10039000308010F0030C00F0158011F8013BBCF127
:1003A000020F624498BF11F801CB00F8013B38BF3F
:1003B00011F8013BA2F1040298BF00F801CB38BF4D
:1003C00000F8013B11F0030300F04A80083AC0F046
:1003D000088051F8043B083A51F804CBA0E8081013
:1003E000F5E7121D5CBF51F8043B40F8043BAFF346
:1003F0000080D20724BF11F8013B11F801CB48BFA0
:1004000011F8012B24BF00F8013B00F801CB48BFD5
:1004100000F8012B70474FF000020429C0F0128051
:1004200010F0030C00F05080CCF1040CBCF1020F72
:1004300018BF00F8012BA8BF20F8022BA1EB0C017C
:1004400000F042B85FEAC17C24BF00F8012B00F83D
:10045000012B48BF00F8012B704770477047704769
:1004600010B5203AC0F00B80B1E81850203AA0E84F
:100470001850B1E81850A0E81850BFF4F5AF5FEA83
:10048000027C24BFB1E81850A0E8185044BF18C936
:1004900018C0BDE810405FEA827C24BF51F8043BDD
:1004A00040F8043B08BF7047D20728BF31F8023B31
:1004B00048BF11F8012B28BF20F8023B48BF00F8C5
:1004C000012B70474FF0000200B513469446964644
:1004D000203922BFA0E80C50A0E80C50B1F1200157
:1004E000BFF4F7AF090728BFA0E80C5048BF0CC005
:1004F0005DF804EB890028BF40F8042B08BF704763
:1005000048BF20F8022B11F0804F18BF00F8012BD4
:100510007047754600F02CF8AE4605006946534614
:1005200020F00700854618B020B5FFF75FFEBDE854
:1005300020404FF000064FF000074FF000084FF04A
:10054000000B21F00701AC46ACE8C009ACE8C009DB
:10055000ACE8C009ACE8C0098D46704710B5044648
:10056000AFF300802046BDE81040FFF72ABE000030
:1005700000487047E810002001491820ABBEFEE794
:1005800026000200704710B502F03BFE002010BDAF
:1005900010B5054C0421204601F00DFB2046BDE8B6
:1005A0001040022101F007BB0024014010B5144C9B
:1005B00088B00021204601F0E1FB124800210090A4
:1005C0008DF8181001208DF81900000201908000AC
:1005D0000390032004900C4A4FF4005002920590BF
:1005E0008DF81A106A46204601F0EAFB00212046E9
:1005F00001F0B4FB0021204601F090FB08B010BDD3
:10060000000002404C2401400400002070B5214C41
:100610000020214DA0708021284601F038FE0028DE
:10062000A0782AD020F00200A0704021284601F0D6
:100630002EFE0028A07823D020F00400A0702021F6
:10064000284601F024FE0028A0781CD020F00800E5
:10065000A0701021284601F01AFE0028A07815D0BD
:1006600020F01000A070C0B20C49401CC0B208704D
:10067000217A814200D0207270BD40F00200D3E7A1
:1006800040F00400DAE740F00800E1E740F0100035
:10069000E8E70000C8000020000801400A00002030
:1006A00070B5154C48F2F81304222821204601F0B9
:1006B0009EFD124D4EF2923304221021284601F085
:1006C00096FD40F6040304221021204601F08FFD20
:1006D0004FF41F4304221021284601F088FD6314C3
:1006E00004221021064801F082FDBDE8704001217E
:1006F000044801F0D1BD000000080140000C014099
:10070000001001400002300010B572B64FF00060DA
:10071000014601F079FF62B600F0EEF8FFF7C0FF86
:1007200001F0E0FA01F08AF901F0C6FA00F0C6F82B
:1007300000F09CFCBDE8104001F0B4BB7FB505247F
:100740001D4803264FF4007503948DE861000023D3
:100750001A4A1BA100F5806002F04CFB30B91EA1C3
:10076000002000F0E7FC254802F0A0FB2448039499
:100770008DE861000023114A22A100F5007002F00B
:1007800039FB10B9234802F091FB0120CDE90204A6
:100790002149CDE9001519480023204A20A1B03095
:1007A00002F028FB002806D104B01448BDE87040D0
:1007B000B03002F07BBB7FBDD80000201D0F0008C9
:1007C0004D61696E5461736B5F7468726561645FDB
:1007D000656E747279000000434E544C5F74687209
:1007E0006561645F656E74727920696E6974205307
:1007F0007563636573736564200A0D00D804002077
:100800003806002044415F7468726561645F656EFC
:100810007472790038080020D8020020ED0F00081B
:1008200050435F43414E5F7468726561645F656EFB
:1008300074727900008840BA7047FEE770B5094DC0
:10084000FF22134605F5807605E010F8014B544071
:100850002A5D5A40335D491E89B2F6D243EA02202E
:1008600070BD00009E38000870B5114B114D4FF05F
:1008700000025868810419D52978162911D201F18E
:100880001000162803D9C1F11600C4B200E01024EC
:1008900009482246084401F034FC28782044287096
:1008A00070BD2A7020F40050586070BD2A7070BD71
:1008B000C800002034000020340900200D483222F6
:1008C000018821F0FF01A53121F47F4101804FF41F
:1008D000A05141800181C2804FF47A718180828170
:1008E00041810021C1814FF4806202824182828273
:1008F000704700003409002010B540F2026001F09A
:1009000033FF40F2036001F02FFF40F2096001F075
:100910002BFF4FF4C06001F027FF4FF4A06001F0FF
:1009200023FFBDE81040012001F078BE2DE9F04121
:10093000814E824B824D7078824C401C707010F05A
:1009400003004FF400574FF4804837D0012863D09C
:1009500002287CD003287BD000222021184601F0F9
:1009600041FC00220821284601F03CFC022002F054
:10097000F4F93946284601F08AFC616860F3C71132
:1009800061604146284601F082FC217860F3041141
:1009900021701021284601F07AFC0146606861F35D
:1009A000CB2060608021284601F071FC617860F303
:1009B0000411617000207070BDE8F08100222021D8
:1009C000184601F00FFC00220821284601F00AFC1D
:1009D000022002F0C2F93946284601F058FC61684D
:1009E00060F3C71161604146284601F050FC0146A2
:1009F000207861F3041020701021284601F047FC94
:100A0000616860F3CB2161608021284601F03FFCE2
:100A1000617860F304118CE001222021184601F076
:100A2000E1FB00220821284601F0DCFB022002F055
:100A300094F93946284601F02AFC616860F30411F4
:100A400061604146284601F022FC217801E014E073
:100A500042E060F3410121701021284601F017FCAB
:100A60000146606861F3082060608021284601F03B
:100A70000EFC617860F341015BE000222021184602
:100A800001F0B0FB01220821284601F0ABFB022057
:100A900002F063F93946284601F0F9FB616860F31A
:100AA000451161604146284601F0F1FB014620787E
:100AB00061F3C30020701021284601F0E8FB0146D5
:100AC000606861F3492060608021284601F0DFFB07
:100AD000617860F3C3012CE001222021184601F067
:100AE00081FB01220821284601F07CFB022002F054
:100AF00034F93946284601F0CAFB616860F3861173
:100B000061604146284601F0C2FB217860F3820112
:100B100021701021284601F0BAFB0146606861F39C
:100B20008A2060608021284601F0B1FB617860F383
:100B30008201617040E700000A00002000080140C7
:100B4000000C0140C80000202DE9F043334FA3B052
:100B50004FF0000987F80990387A0324082801D05B
:100B60007C7220E03868801CFFF764FE0646386817
:100B7000001DFFF75FFE0500F2D0462DF0D80024DF
:100B8000E84609E008EB4401304600F0B7F840B110
:100B9000761C641CB6B2A4B2AC42F3D3787A40B1EE
:100BA00001E002207872787A00F00AF923B0BDE8FB
:100BB000F08387F810903868F96800780870387CFE
:100BC000401CC0B238743968FA6849781154387CCE
:100BD0006900401CC0B23874FA681154387C42462F
:100BE000401C3874002012E03C7CFB6812F81010A6
:100BF0001955397C02EB4003491CC9B23974FC68B1
:100C00005B786354397C491C401C397480B2A8421B
:100C1000EAD3397CF86800F0FDF8C7E72009002026
:100C200010B5104C00206072207A082801D00320F3
:100C300008E02068801CFFF7FDFD2068001DFFF71D
:100C4000F9FD0220607220680078002809D0607ADF
:100C500018B1BDE8104000F0B3B8BDE8104000F096
:100C6000C3B810BD2009002070B5144C002060727C
:100C7000207A082801D003200FE02068801CFFF7AD
:100C8000D9FD05462068001DFFF7D4FD0146284622
:100C900000F0D4F8012801D00220607220680078AA
:100CA000002809D0607A18B1BDE8704000F088B81B
:100CB000BDE8704000F098B870BD00002009002029
:100CC0000D4A10680178407803280BD005280DD014
:100CD00006280DD010280BD000290BD0012050720F
:100CE00000F06EB8002905D0FFF72EBFFFF798BFC0
:100CF000FFF7BABF704700002009002070B52F4CE5
:100D00000022012523880A283BD008DC0A284FD27C
:100D1000DFE800F04E202326292C2E303234B0F5A7
:100D2000606F3AD008DC0B282ED00C282FD00D286D
:100D30002FD00E283CD12EE0A0F5606001382ED0D7
:100D400001282FD002282FD0A0F2FF10B0F5604F5D
:100D50002ED12CE0C3F3C0222AE0C3F3802227E087
:100D6000C3F3002224E0C3F3402221E062881FE0A5
:100D7000A2881DE0E2881BE0DA0B19E0C3F38032A1
:100D800016E0C3F3003213E0C3F3403210E02289CF
:100D90000EE062890CE0A2890AE0E28908E0B4F979
:100DA000102005E0628A03E0B4F9142000E001227B
:100DB000100A08704A70284670BD000034090020EF
:100DC00008490A68CB6812781A700A68CB685278AA
:100DD00042F080025A70CA689070C868032100F01F
:100DE00019B800002009002030B5094C89B0002056
:100DF000217A6B46226803E0155C1D54401CC0B28A
:100E00008142F9D862681846904709B030BD0000A9
:100E10002009002070B50C460546FFF70FFD010ABA
:100E200029552919A41C48700348E1B24268284694
:100E3000BDE87040104700002009002070B5354A19
:100E400001240B2813884BD009DC0B285FD2DFE884
:100E500000F05E2B2E3235383A3C3E41440040F6DD
:100E60000166A0F601630DB2B04244D009DC0C2843
:100E700039D00D2839D00E2839D0B0F5606F46D161
:100E800037E0012B39D0022B39D0234D4AF65520BB
:100E9000B3F5624F35D06FF46242D34237D181420D
:100EA00035D1FFF70BFD2EE061F3CB2301E061F3B9
:100EB0008A2313802BE061F30823FAE761F34923C7
:100EC000F7E7518023E0918021E0D1801FE061F3BA
:100ED000CF33EEE761F38E33EBE761F30C33E8E7F2
:100EE00061F34D33E5E7118111E051810FE091810C
:100EF0000DE0D1810BE0158209E0518207E0958277
:100F000005E0814203D1686840F4005068602046E3
:100F100070BD000034090020C80000200A2001F044
:100F20001CFFFFF703FDFFF771FBFFF79DFCF5E7E3
:100F3000FEE70000024BD860C3E9001270470000D2
:100F40002009002070B51749174C4FF0000508889C
:100F500020F001000880C0071ED1207A04281BD38E
:100F6000801E81B22068FFF769FC104A5080237A06
:100F700021680B4413F8016C13F8023C06EB0323C1
:100F8000834209D108781080627C824200D018B96F
:100F9000487808B1FFF794FE217A2068FFF73BFA02
:100FA000257270BD28000020200900202A000020A2
:100FB00070470907090E002806DA00F00F0000F15B
:100FC000E02080F8141D704700F1E02080F8001444
:100FD00070470000002904D002480172024801F065
:100FE0000EBE704720090020E808002011490020AB
:100FF000012248600870104903464A74087202468C
:101000000EA1124801F0E8FD18B111A1002000F076
:1010100091F8154800F00EFA4FF47A74052001F0AB
:101020009CFE2146094801F010FE00F05FFA00F036
:10103000D1FAF3E7180000202009002050435F5543
:101040004152545F4953525F53656D00E8080020D8
:1010500050435F4953525F73656D20496E69742038
:101060004661696C200A0D00D50F000810B51624E2
:1010700022460021094801F00FF818B1074800780E
:10108000A52808D0FFF71AFC22460021034801F0EA
:1010900038F8002800D0012010BD000034090020DD
:1010A0002DE9F04107460B4815460E46007808B971
:1010B00000F0ACFAEFF31184202080F311882A4667
:1010C0003146384600F008F8E1B281F31188BDE8F6
:1010D000F0810000D00A002070B50E46144900EBE4
:1010E000400001EBC0051446E86A183520B101281C
:1010F0000FD0022805D113E0284600F0BBFAA04229
:1011000001D2002411E022463146284600F0D2FBED
:101110000BE0284600F0AEFAA042F4D20446F2E713
:101120003146284600F099FB0446204670BD000079
:10113000D00A00200FB408B504A900916A460399AB
:1011400000F003F801B05DF814FB2DE9F04198B010
:10115000804607A8029040200026CDE90306CDE98D
:10116000056815460C4614F8011B00296FD0252987
:1011700008D002A800F052FB05980028F3DA18B056
:10118000BDE8F08100200122217823291ED02B29DF
:1011900019D02D2902D0302908D102E040F00100F9
:1011A00001E040F00200641C002AEDD10022217809
:1011B000A1F130030A2B0CD202EB820201EB4202B6
:1011C000303A641CF3E740F00400ECE740F008001C
:1011D000E9E70023CFB22E2F0BD114F8011FA1F1A4
:1011E00030070A2F05D203EB830301EB4303303BA7
:1011F000F3E76C290DD068290BD070294AD00BDC9D
:10120000252914D058292BD063290CD0642911D159
:1012100012E014F8011FECE773292CD0752917D0C0
:10122000782907D11CE02868011D2960017802A8EF
:1012300000F0F4FA641C9FE729680F1D2F6009680D
:10124000CDE900200A2202A800F01FFAF2E72BE005
:1012500029680F1D2F600968CDE900200A2206E0E9
:1012600029680F1D2F600968CDE90020102202A80F
:1012700000F06EFADEE72868011D2960076817F89C
:10128000011B0029D6D002A800F0C8FA0598002852
:10129000F5DACFE72868011D296001680820CDE94B
:1012A000000603461022E2E7059800287FF767AFA3
:1012B000049820B1024607A94046FFF7F1FEDDE998
:1012C0000410084405905AE704480168491C01606D
:1012D00003480168491C016001F0FABB00000020CE
:1012E00014000020134882B0016841F470010160CD
:1012F0001148016841F001010160416841F080013D
:101300004160002344F620610093009A521C009231
:101310008A42FAD34360C3620168084A11400160FF
:101320004FF41F018160016821F48021016002B047
:1013300001F07CBF88ED00E000100240FFFFF6FEE8
:1013400010B5074C0121204602F085F9002805D090
:101350002046BDE81040012102F07AB910BD00001E
:101360000004004010B500224FF400610B4800F06B
:1013700039FF0B4C0121204600F0C0FC0221204621
:1013800000F0BCFC40220221204600F06EFD204609
:10139000BDE81040022100F0C1BC0000000801407F
:1013A000000002402DE9F047DFF878900D46064630
:1013B0004FF40068002401224146484600F012FF25
:1013C0002A4631461848FEF7E1FF184E2A46012109
:1013D000304600F04AFD0121304600F09FFC4FF4FA
:1013E000FA75134F05E0641CAC420FD8012001F0E0
:1013F000B4FC02220121304600F0DBFC0028F2D0D0
:101400000621384602F00DFA0028ECD001213046C2
:1014100000F074FC41464846BDE8F047002200F069
:10142000E1BE000000080140900A002000000240D8
:101430000048004070B52749274A0860274901F154
:101440004000FFF777FD40F2127001F08DF940F295
:10145000036001F089F9224D4FF4806303221821C3
:10146000284600F0C4FEEC1423460322042128463B
:1014700000F0BDFE1B4D284602F08CF94FF41651CA
:10148000284602F059F90421284602F0F7F908210C
:10149000284602F0F9F902F0E9F80122022127209A
:1014A00001F05EF84FF44171284602F0C5F9802141
:1014B000284602F0A1F94021284602F097F9284673
:1014C00002F0A0F92146BDE870400022064800F075
:1014D00089BE00003C000020A5130008500A00202F
:1014E000000C0140004800400008014010B5FFF723
:1014F00029FDBDE81040FFF735BF00002DE9F041A0
:10150000154E1449304602F0A1F9A8B1304602F058
:101510003DF9124F0221384600F0B6FC104DC0F1E3
:101520004000C4B2286838B10221384600F0E6FB1A
:101530002A6821460B4890470321304602F071F992
:10154000002805D03046BDE8F041032102F05FB924
:10155000BDE8F081040304000048004000000240A0
:101560003C000020500A00202DE9F041154E14499E
:10157000304602F06BF9A8B1304602F007F9124F7D
:101580000221384600F080FC104DC0F14000C4B28A
:10159000286838B10221384600F0B0FB2A6821469D
:1015A0000B4890470321304602F03BF9002805D054
:1015B0003046BDE8F041032102F029B9BDE8F081D1
:1015C0000403040000480040000002403C000020EA
:1015D000500A002010B50B4C0321204602F021F9DF
:1015E00018B10321204602F012F90321204602F02F
:1015F00018F9002805D02046BDE81040032102F06C
:1016000006B910BD00480040FEE7000010B5124CBE
:1016100003202061606111A0A06104F1A800E061D5
:1016200080200021A162206261620CA0E16220663C
:1016300004F59470606610202167C4E91A0161679F
:1016400009A1E01DFEF77EFE08A12046FEF77AFE06
:101650002020A07110BD0000D00A00205465726DDA
:10166000696E616C000000005254540053454747B6
:10167000455200000269C1688A4203D88068401A56
:10168000104400E0501A401E70472DE9FC5F0E0028
:101690008046DDE90C47C6F1000099469246834634
:1016A00000D40846012502E090FBFAF06D1C50457D
:1016B000FADAA94500D94D4624B1002E01DB78079E
:1016C00000D5641EB80702D5B9F1000F0FD0F80796
:1016D0000DD164B1A5420AD220214046641E00F01B
:1016E0009DF8D8F80C000028F3DABDE8FC9FD8F884
:1016F0000C000028F9DB002E02DA5E462D2102E004
:10170000780707D52B21404600F088F8D8F80C0060
:101710000028EADB07F0030002280FD1B9F1000F1F
:101720000CD15CB1A54209D230214046641E00F0C4
:1017300075F8D8F80C000028F3DAD6E7CDE90047B1
:101740004B4652463146404600F002F8CDE70000D5
:101750002DE9F84F8246DDE90A4B012599461746E7
:10176000884608462E4602E0B0FBF7F0761CB842E9
:10177000FAD2B14500D94E465FEACB7017D1B4B169
:101780005FEA8B7002D5B9F1000F02D020200090E3
:101790000BE03020FBE75046641E009900F03EF855
:1017A000DAF80C00002835DB0CB1A642F3D3DAF8E6
:1017B0000C0000282EDBB9F1010F02D9A9F10109B3
:1017C00003E0B8FBF5F0B84201D37D43F3E7DFF85F
:1017D0004890B8FBF5F000FB158819F8001050464A
:1017E00000F01CF8DAF80C00002803DBB5FBF7F575
:1017F000002DEED15FEACB700CD0002C0AD0A642AF
:1018000008D220215046641E00F008F8DAF80C00D7
:101810000028F2DABDE8F88F9E3B000810B50446B8
:10182000D4E90130421C934205D323681954A260C5
:10183000E068401CE060D4E90102824209D12168DD
:101840002069FFF72DFCA168884203D04FF0FF30DC
:10185000E06010BD0020A06010BD2DE9F047C46815
:101860001746894605464FF000082869A04201D96D
:10187000061B02E0A968201A0E1AA868761E001B33
:10188000B04200D80646BE4200D33E4668683246A3
:1018900020444946FEF77AFDA868BF1B3444B04493
:1018A000B144A04200D10024EC60002FDDD14046BD
:1018B000BDE8F0872DE9F04104468846D4E90207E7
:1018C000C51BE168606816460844B54206D9414622
:1018D000FEF75CFDB819E060BDE8F0812A4641469C
:1018E000FEF754FD761B08EB050132466068FEF7F3
:1018F0004DFDE660F0E70000002807D00E4910F02B
:10190000FF0F04D051FA80F00078401C704710F4AB
:101910007F4F04D0C0F30720085C0930704710F4F3
:101920007F0F04D0C0F30740085C1130704701EB13
:101930001060007819307047AE3B00082DE9FC417B
:1019400019460446DDE90837DDE90A652C304060B8
:101950000060C4E90E21C4E910373A462321184635
:10196000343401F03CF8D4E903014218D4E9010110
:101970000D4B121F00F09CFF2060A67666760020BB
:10198000A562E061E562606120766067A067343C33
:10199000009023460190054A194604F1640001F0C5
:1019A000A4FB0020BDE8FC81612D00081B2F00086E
:1019B00070B50546002405EBC4002C3001F006F894
:1019C000641C012CF7DB70BD70B50446FEF720FCEB
:1019D000D4F8A810054609B1204688472846BDE836
:1019E0007040FEF719BC816841F008018160816890
:1019F0000907FCD4816841F00401816081684907CE
:101A0000FCD470471205A2F5801201290BD00229DF
:101A100008D1816B21F44011816302F44011826B83
:101A2000114381637047C16A21F47001C16202F4FD
:101A30007001C26A1143C1627047000010B540F2E4
:101A4000026000F091FE40F2096000F08DFE4FF45C
:101A5000A06000F089FE032000F0E0FDFEF7A6FD87
:101A6000002000F0ADF8284C00220221204600F0B2
:101A7000F2F801221102204600F0EDF80021204684
:101A800000F044F8204600F04BF8032201212046E4
:101A9000FFF7B8FF002205231146204600F09CF80E
:101AA000012205231146204600F096F80222052364
:101AB0001146204600F090F84FF4C0220121204644
:101AC00000F056F801221146204600F036F80221B7
:101AD000204600F070F80221204600F059F84FF43B
:101AE000C06000F087FD01221146122000F038FD91
:101AF000204600F01AF84FF47A7000F0F5F820460E
:101B0000BDE81040FFF76FBF002401400029816845
:101B100002D041F4006101E021F40061816070476E
:101B2000816841F48071816070478168C90703D181
:101B3000816841F0010181607047002A4FEAC1725B
:101B40000AD01AB1826842F48012826089070ED5E9
:101B5000816841F4004109E01AB1826822F48012E0
:101B60008260890703D5816821F400418160704754
:101B7000012909D0022906D1816821F4E041816060
:101B80008168114381607047816821F46021F6E724
:101B9000CA0703D0426842F0400242608A0703D578
:101BA000426842F020024260490703D5416841F093
:101BB00080014160704702688A43026070470000FC
:101BC00004490A6822F470220A600A6802430A6023
:101BD000704700000424014030B51F24062909D2B3
:101BE000456B01EB81018C40A54302FA01F42C43C3
:101BF000446318E00C290AD2056B891F01EB8101AF
:101C00008C40A54302FA01F42C4304630BE0102935
:101C100009D2C56A0C3901EB81018C40A54302FA57
:101C200001F42C43C46207250A2A08D2046902EB96
:101C300042018D40AC438B402343036130BD122AE7
:101C4000FCD2C4680A3A02EB42018D40AC438B409F
:101C50002343C36030BD002A4FEAC15211D0002A8D
:101C600003DA426842F4807242604A0503D5426852
:101C700042F480624260890715D5816841F0020113
:101C800010E0002A03DA426822F4807242604A05BA
:101C900003D5426822F480624260890703D58168D7
:101CA00021F0020181607047024890F8011180F82C
:101CB000001170474C09002010B5094C4FF4006327
:101CC00004221421204600F092FA23150422142144
:101CD000204600F08CFABDE8104000F0D3BB0000B5
:101CE000000C0140FFF7E0BF002204E00021491C86
:101CF0003229FCD3521C8242F8D3704770B50C468F
:101D0000054600F099F840B104EB840005EB800033
:101D1000816821F00101816070BDFEE770B50C465D
:101D2000054600F089F840B104EB840005EB800023
:101D3000816841F00101816070BDFEE770B50C461D
:101D4000054600F079F840B104EB840005EB800013
:101D5000816821F02001816070BDFEE770B50C46FE
:101D6000054600F069F840B104EB840005EB800003
:101D7000816841F02001816070BDFEE770B50D46BD
:101D8000044600F059F898B105EB850004EB800299
:101D9000906820F00100906000209060D060106199
:101DA00050616068AA000F2191400843606070BDD7
:101DB000FEE7006889008A40104000D0012070478B
:101DC00070B514460D46064600F036F850B305EBE4
:101DD000850006EB800021680161A1684161218ACC
:101DE00089B2C1608168E36821F47C52616819435B
:101DF0006369134319438160217E0129816812D0F0
:101E000021F040018160617E012981680ED021F0BE
:101E100080018160A17E002981680AD041F0100113
:101E2000816070BDFEE741F04001EBE741F08001C9
:101E3000EFE721F01001F3E70246044B01209A423C
:101E400002D1042900D9002070470000000402409C
:101E500050B100210160416001768160C16041762E
:101E60000161817641617047FEE770B515460C4609
:101E70000646FFF7E1FF30B104EB840106EB810178
:101E8000A8B2C86070BDFEE770B50C460546FFF706
:101E9000D3FF28B104EB840005EB8000C06870BD5F
:101EA000FEE700002DE9F04188B04FF4E06000F05B
:101EB0005BFC40F2017000F057FC40F2027000F051
:101EC00053FC00247726DFF8B881ADF80060ADF848
:101ED000044040F6FF77ADF802400297ADF80640A7
:101EE0008DF80C406946404601F068FB0125ADF8CD
:101EF0001050ADF81440ADF81840ADF81240ADF8F0
:101F00001640ADF81A4004AA0021404601F00AFA32
:101F100000221146404601F016FB60220021404697
:101F200001F0EAFA00221146404601F01BFBADF831
:101F30000060544EADF80440ADF802400297ADF891
:101F400006408DF80C406946304601F037FBADF88D
:101F50001050ADF81440ADF81840ADF81240ADF88F
:101F60001640ADF81A4004AA0121304601F0DAF912
:101F700000220121304601F0E6FA602201213046BC
:101F800001F0BAFA00220121304601F0EBFA3E4896
:101F900044F62061AF070068B0FBF1F081B23B4826
:101FA0000180491EADF80040ADF804400291ADF843
:101FB0000240ADF806408DF80C406946384601F005
:101FC000FDFAADF81440ADF8105004AA00213846CF
:101FD00001F0A8F9ADF81440ADF8105004AA0121A1
:101FE000384601F09FF900221146384601F0ABFA5D
:101FF00060220021384601F07FFA0022114638465F
:1020000001F0B0FA00220121384601F09CFA60226A
:102010000121384601F070FA00220121384601F012
:10202000A1FA384601F078F9304601F075F94046DA
:1020300001F072F9384601F0BCFA304601F0B9FA05
:10204000404601F0B6FA124C012304221821204622
:1020500000F0CDF8022304221821204600F0C7F832
:102060000C4C202304221821204600F0C0F8402305
:1020700004221821204600F0BAF808B0BDE8F0812B
:102080000008004000040040380000202E0000201E
:1020900000080140000C01402DE9F04115460C46B6
:1020A000074600F0CDF9A02000F096F900F006FAFE
:1020B00068B9E0B200F090F900F000FA38B900F029
:1020C000BFF9A12000F088F900F0F8F920B100F084
:1020D000D9F90020BDE8F08100246E1E0BE000F06D
:1020E0004DF93855B44202D000F002F901E000F099
:1020F00029F9641CA4B2AC42F1D300F0C3F9012069
:10210000E8E72DE9F04790460E46814600254FF45A
:102110007A7729E00DB1300716D100F0B3F9002429
:1021200000F08EF9A02000F057F900F0C7F918B1BF
:10213000641CA4B2BC42F3D3BC420CD0F0B200F099
:102140004BF900F0BBF930B919F8050000F044F97B
:1021500000F0B4F920B100F095F90020BDE8F08757
:10216000761C6D1CB6B2ADB24545D3D300F08AF9EA
:102170000120F3E730B5124D104B45F255541A4685
:102180002C60EC68521E04F0010402D0002CF8D13F
:1021900000E04CB96960E9685B1E01F0020102D001
:1021A0000029F8D102E009B1002030BDC0F30B00D6
:1021B000A8604AF6AA202860012030BDFFFF0F006A
:1021C0000030004002494AF6AA200860704700002B
:1021D00000300040024945F2555008607047000049
:1021E000003000400AB101617047416170472DE93C
:1021F000F04301F00F04CD0602D5042A18D0144391
:1022000000224FF00F094FF0010808FA02F51D40B7
:1022100019D00768960009FA06FC27EA0C0704FAA9
:1022200006FC4CEA070C282908D0482908D008E009
:10223000C26B44F003041A43C263E1E7456100E066
:102240000561C0F800C0521C92B2082ADDD30822F2
:1022500008FA02F51D4014D047689600203E09FA9E
:1022600006FC27EA0C0704FA06FC4CEA070C2829AE
:1022700002D0482902D002E0456100E00561C0F8C3
:1022800004C0521C92B2102AE2D3BDE8F0838068E9
:10229000084000D001207047F0B5144C002801DA46
:1022A000E36900E06368450D2E0185B2C0F3015774
:1022B000B540C0F30342032F05D0C6020AD503265A
:1022C0009640B34307E023F0E062636823F0E063E5
:1022D000636002E0AB4343F0E06201B12A430028AF
:1022E00001DAE261F0BD6260F0BD00000000014073
:1022F00070B5104D4FF40064002221462846FFF7C8
:1023000071FF00F019F80122960231462846FFF7C6
:1023100069FF00F011F8002231462846FFF762FFFE
:1023200000F00AF821462846BDE870400122FFF778
:1023300059BF0000000C01400020401C80B246281C
:10234000FBD3704770B50C4C0122D1022046FFF739
:1023500049FFFFF7F1FF0122950229462046FFF7CA
:1023600041FFFFF7E9FF002229462046FFF73AFF29
:10237000BDE87040FFF7E0BF000C01402DE9F041DF
:102380000122144ED70239463046FFF72BFF0024B6
:10239000B846254637156006040E012239463046F8
:1023A000FFF720FFFFF7C8FF41463046FFF76FFFFA
:1023B00008B1641CE4B2002239463046FFF712FF30
:1023C000FFF7BAFF6D1CEDB2082DE4D32046BDE83F
:1023D000F0810000000C01402DE9F041174E054648
:1023E00000244FF480674FF40068280601D50122CD
:1023F00000E0002241463046FFF7F4FEFFF79CFF65
:10240000012239463046FFF7EDFEFFF795FF002227
:1024100039463046FFF7E6FE072C04D1012241463B
:102420003046FFF7DFFE6806050EFFF785FF641CE8
:10243000E4B2082CD9D3BDE8F0810000000C0140C3
:1024400070B501220E4DD40221462846FFF7CAFE80
:102450000122960231462846FFF7C4FEFFF76CFFC3
:10246000002221462846FFF7BDFEFFF765FF002248
:1024700031462846FFF7B6FEBDE87040FFF75CBF67
:10248000000C014070B50C4D4FF400640022214651
:102490002846FFF7A7FE012291022846FFF7A2FE79
:1024A000FFF74AFF012221462846FFF79BFEBDE8C1
:1024B0007040FFF741BF0000000C014070B50122E1
:1024C000104DD40221462846FFF78CFEFFF734FF5B
:1024D0000122960231462846FFF784FEFFF72CFFC3
:1024E00021462846FFF7D3FE08B1012400E000246E
:1024F000002231462846FFF775FEFFF71DFF2046F4
:1025000070BD0000000C0140FEF718F905214FF4E2
:102510007A70FFF72FFEFFF75DFE4FF400550B4C6E
:10252000FFF750FEFA2000F018FC00222946204652
:10253000FFF758FEFA2000F010FC01222946204641
:10254000FFF750FEFFF73EFEEAE7000000100140F3
:1025500010B500F05FF9BDE81040FFF7D5BF0000EF
:1025600070B5054622480E46002401682346C1F393
:10257000022107291AD00168C1F30221062917D0C8
:102580000168C1F3022105290DD00168C1F30221C0
:10259000042910D00068C0F3022003280ED04FF4A5
:1025A000A06000F027F80224234608E0042306E098
:1025B0000124032303E00324012300E00424C4F1E5
:1025C00004008640C3F104010F20C840104030438E
:1025D00005F1E021000181F8000405F01F01012050
:1025E00088406909890001F1E021C1F8000170BD4E
:1025F0000CED00E002490843024908607047000002
:102600000000FA050CED00E0024A114001430248C7
:102610000160704780FFFF1F08ED00E0124B10B50E
:102620005968124A1140DA6A0C2822F0005217D277
:10263000DFE800F00606060616091609101010104D
:1026400041EA80310CE020F0040041EA803040F0A3
:10265000805105E020F00C0041EA803142F0005248
:102660005960DA6210BD000000100240FF3FFFEF2A
:1026700070B536A188B036C98DE8360034A1374C24
:10268000D1E90021CDE9042131A10346D1E900219E
:10269000CDE9062161680020314AC1F3810179B397
:1026A00001292DD002292BD16168551001F4803108
:1026B000B1F5803F0AD1E16A11F0804F00D0294A7C
:1026C000616801F40031B1F5003F00D12A4661682C
:1026D0006568C1F383412D0101D541F010016568A2
:1026E0006D0001D541F020010F2901D2891C06E0BF
:1026F000A1F10F052F2D01D8491C00E03F214A43CD
:1027000061686568C1F303111DF8011022FA01F137
:10271000C5F3022504AE6468755D21FA05F5C4F3BE
:10272000C22406AE345D21FA04F443B1012B08D073
:10273000022B08D0032B00D1204608B070BD1046F4
:10274000FBE70846F9E72846F7E70000000000002D
:1027500000000000010203040607080900100240FF
:1027600000127A00006CDC02054901EB90110A6846
:1027700000F01F030120984002430A6070470000E8
:1027800000100240054901EB90110A6800F01F0398
:102790000120984082430A60704700000010024008
:1027A000054901EB90110A6800F01F0301209840D1
:1027B00002430A6070470000001002401FB50A4C37
:1027C00014230A224FF40071A4F500708DE80F0065
:1027D0000023064A06A1204600F00CFB04B0204668
:1027E000BDE8104000F062BB080E00205125000833
:1027F0006D61696E0000000070B5044C044D02E08C
:1028000020688047241DAC42FAD370BDD43C000838
:10281000D83C000870B5044C044D02E020688047A5
:10282000241DAC42FAD370BDD83C0008DC3C000843
:1028300010B5FDF7EDFC044A5188491C5180BDE8F4
:102840001040FDF7E9BC00009800002010B5FDF72E
:10285000DFFC0B4C6188491E09B2618000290ADC4B
:1028600000216180FDF7D8FC6068002807D0BDE832
:10287000104000F037B9BDE81040FDF7CDBC10BDE9
:102880009800002010B500F027FDFDF73DFFBDE8E2
:102890001040FFF7B1BF0000044910B509682830A7
:1028A00011B18847002800D0FEE710BDB800002015
:1028B00070B50546121D22F0070044380A4C064642
:1028C000002240F82240521C112AFAD34162002112
:1028D0008162C1624FF0807200F1340402640163CE
:1028E00084E82A00316070BDEFBEADDE10B5FDF7A3
:1028F0008FFC044A1178491C1170BDE81040FDF7A7
:102900008BBC00004400002010B5FDF781FC044A98
:102910001178491E1170BDE81040FDF77DBC000024
:10292000440000202DE9F041054614460E460846B5
:1029300000F0D2FA06F12C07ACB1012C17D12C68AB
:102940000DE096F84D1094F82120A4F12C0091424E
:1029500004D239462C3000F01BF802E02468AC4267
:10296000EFD1AC4203D13946284600F011F80020DF
:10297000BDE8F0810268516002680A600160486049
:1029800070470268516002680A60016048607047E1
:102990004268116042684A6041600860704701689F
:1029A000814201D1012070470020704701688142B7
:1029B00001D10120704700207047D0E900124A6021
:1029C000D0E900121160406000607047D0E9001249
:1029D0004A60D0E90012116040600060704710B595
:1029E0000346CCB2042A19D3810717D1194644EA09
:1029F000042343EA034306E008C1103A08C141F842
:102A0000083B41F8043C102AF6D201E008C1121F2D
:102A1000042AFBD20B4601E003F8014B521EFBD205
:102A200010BD10B50446002084F82000FDF7F0FB2F
:102A3000F4E909124A60D4E900121160646024606C
:102A4000BDE81040FDF7E8BB074A002102EB011387
:102A50001B78834202D102EB01107047491C052903
:102A6000F4DB002070470000480000202DE9F04111
:102A7000054617460E460846FFF7E6FF0446FFF7F1
:102A8000D7FE211D606800E000688842FCD1FFF796
:102A9000DDFE46F0800085F82000202239462846D9
:102AA00000F00CF9FDF7B4FB54F8041F24354D6019
:102AB0002168296025606C60BDE8F041FDF7ACBB82
:102AC00090F82000000601D50120704700207047D3
:102AD00010B5FFF70BFF00F067FABDE81040FFF7F5
:102AE00013BF000070B5FDF793FB114C05466088DD
:102AF000B0B9A068FEF700FF0E49401E626851F8A9
:102B000030102C3991420BD020700B486160007856
:102B100001F13401002802F1340006D0FDF77FFBFB
:102B20002846BDE87040FDF777BBFDF778FBF7E777
:102B300098000020E80F00204400002010B5044653
:102B4000FDF766FB024694F84C000E4920F00F009A
:102B5000401C84F84C0094F84D0001EBC00104F1D6
:102B60002C004B6818604B68236348600648E1629C
:102B7000216D836819438160BDE810401046FDF760
:102B80004BBB0000E80F00209800002070B5054600
:102B9000FDF73EFB05F12C040146D4E9000242603A
:102BA000D4E9000210602C63EC6295F84D00084AED
:102BB00002EBC0000268824204D106482B6D826895
:102BC0009A438260BDE870400846FDF725BB0000CF
:102BD000E80F0020980000202DE9F04116460A4633
:102BE0001F4605460221FFF741FF05F12C042C6327
:102BF000EC62AE8685F821700020BDE8F08170B5EA
:102C000004460025FDF704FB064604F12C00FFF7FF
:102C1000C6FE38B1A08E4FF6FF7188420FD2401C1D
:102C2000A08604E0E06A2C3800F0FCF8012530466C
:102C3000FDF7F2FA0DB1FFF755FF002070BD3046E9
:102C4000FDF7EAFA6FF0020070BD73B50446FDF7B8
:102C5000DFFA0646A08E28B1401EA0863046FDF75A
:102C6000DBFA22E0019810B300F0FAF805460020E4
:102C7000A86494F82120294604F12C00FFF752FEA5
:102C80000198002809DD05F1640001AA002104462D
:102C900000F0EEF9204600F047FA3046FDF7BCFAA6
:102CA000FFF720FFA86C002800D100207CBD304633
:102CB000FDF7B2FA6FF001007CBD704710B5002A35
:102CC00007D0034611F8014B03F8014B2CB1521EFB
:102CD000F8D110BD03F8011B00E00021521EF9D10C
:102CE00010BD000010B50A4A00230A4C5380184654
:102CF00004EBC001401C496009602028F8DB1F205C
:102D00001070034853600C3093604060006010BD49
:102D100098000020E80F002010B5074CA068FEF7CF
:102D2000EBFD0649401E51F830002C386060BDE8CC
:102D300010403430FDF7B9BA98000020E80F0020A9
:102D4000044A002002EBC001401C49600960F9D030
:102D500070470000B0000020704700F087B8000006
:102D600070B513480468FDF753FA05462046FEF790
:102D70002BFE2046FFF70AFF042084F84C0004F1E4
:102D8000640000F09CF92046FFF79AFE01280BD062
:102D900004F12C010748FFF7EDFDFFF7A3FE2846DD
:102DA000BDE87040FDF738BA2046FFF73AFEF4E779
:102DB0009C000020A4000020FEE700001FB5094889
:102DC00020231F2280218DE80F000023064A07A13F
:102DD000B03800F00FF804B00248BDE81040B03839
:102DE00000F064B8680F0020B92D00087469646CA5
:102DF000650000002DE9FF5F92460EAA0F4692E89B
:102E000070010A46994683460121FFF72FFE8DE89F
:102E100070014B46524639465846FEF78FFD04B0C6
:102E2000BDE8F09F70B5044690F84C0000F00F002C
:102E3000022802D04FF0FF3070BDFDF7E9F90546DA
:102E400004F12C00FFF7B9FD04F1640000F0B8F9BB
:102E50002846FDF7E1F92046FFF770FE002070BD1F
:102E600001480068704700009C000020F1B5FDF7A4
:102E7000CFF905460C480468204600F02DF804F10F
:102E800064006A460021064600F0F2F8304600F081
:102E90004BF92846FDF7C0F9FFF724FEA06C801C13
:102EA00000D1A0640020F8BD9C00002010B590F86F
:102EB0004E10012280F84D108A400221026580F8F0
:102EC0004C10FFF7AFFF0348006808B1FFF70AFE98
:102ED000002010BD9C00002070B5044690F84C0006
:102EE00000F00F00012802D04FF0FF3070BDFDF759
:102EF0008FF905462046FFF749FE94F84C0020F074
:102F00000F00801C84F84C0004F1640000F058F9B4
:102F10002846FDF781F9002070BD10B504466FF01A
:102F20000100A06404F12C00FFF747FD2046FFF7E5
:102F300005FEBDE81040FFF7D5BD000070B5FDF7F8
:102F400067F906461348046894F84C0000F00F0037
:102F5000012819D1D4E90B01884215D004F12C00C5
:102F60000546FFF72AFD94F84D000B4901EBC00020
:102F700041680D6041686960456028603046FDF732
:102F80004BF9FFF7AFFD02E03046FDF745F90020B1
:102F900070BD00009C000020E80F00200148006880
:102FA0007047000040000020094810B50168491C26
:102FB0000160FFF755FF016E491E016603D1C16D27
:102FC0000166FFF7BBFFBDE8104000F003B800004A
:102FD000400000202DE9FC41CDF804D0CDF800D010
:102FE000FFF7DCFF0646FDF713F9054633E01F48FF
:102FF0006FF00041046860692C3C301A88422FD27F
:103000002046FEF7D5FC94F82100810703D420F078
:10301000010084F8210004F12C010F466846FFF7F7
:10302000B0FCD4E90D108847FFF7B8FF06466846A4
:10303000FFF7BCFC78B93846FFF7C8FC94F82100CC
:10304000810708D5C10706D020F0010084F82100CF
:10305000204600F069F80548FFF7A8FC0028C6D014
:103060002846FDF7D9F8BDE8FC810000B00000203B
:1030700070B515460E460446FDF7CAF8052E1AD25D
:10308000DFE806F00503080D1300E16B12E0296884
:10309000E16310E014F8211F21F0020103E014F8AD
:1030A000211F41F00201217005E094F82110C907A9
:1030B00000D001212960FDF7AFF8002070BD70B588
:1030C0000446FDF7A5F805462046FEF771FC94F886
:1030D000210020F0010084F821002846FDF79CF82B
:1030E0002046FFF79EFC002070BD2DE9F0411646FA
:1030F000DDE906580A461F4604460A21FFF7B6FCDA
:1031000028F0010184F821100021C4E90F51C4E91D
:103110000D6704EBC1002C30491C406000600129A0
:10312000F7DBBDE8F08100002DE9F8430446FDF728
:103130006FF880462046FEF73BFC94F8210020F013
:10314000010084F82100FFF729FFE16B1B4F4318B2
:10315000236400226D4600970CE00668A6EBC201CE
:103160004969994204D0C91A6FF0004C614508D3EF
:1031700045F8226007EBC20155F8220049688842F1
:10318000EBD11AB105EB820108304860521CF1D036
:103190000A48001F0168491C016004F12C010098D5
:1031A000FFF7EFFB14F8210F40F0010020704046BC
:1031B000FDF732F80020BDE8F8830000B0000020E1
:1031C00070B5044690F82100C0070FD0FDF720F835
:1031D00005462046FEF7ECFB14F8210F20F0010015
:1031E00020702846FDF718F8002070BD4FF0FF3022
:1031F00070BD0020704700207047002070470020FD
:10320000704710B5FDF704F8FFF73CFBFFF755FDDD
:10321000FFF796FDFFF766FDFFF7D0FAFFF79CFD7D
:10322000FFF7CCFDFFF778FD002010BD26480021F8
:10323000026842F0010202604FF4A0630268491C78
:1032400012F0020F01D19942F8D10168890700D428
:10325000FEE7C16941F08051C1611C490A6842F42E
:1032600040420A604268426042684260426842F4FA
:10327000806242604268164B1A4042604268154BB9
:103280001A434260026842F0807202600268920152
:10329000FCD50A6842F480320A604A68D203FCD541
:1032A0000A6842F400320A604A689203FCD5416819
:1032B00021F003014160416841F002014160416831
:1032C0000907FCD570470000001002400070004064
:1032D000FFFFC3B70000340870B50E484FF47A7191
:1032E0000068B0FBF1F0401EB0F1807F11D24FF0CA
:1032F000E024606165170F212846FDF75AFE002083
:10330000A061072020612846BDE870400021FDF73C
:1033100050BEFEE738000020016841F080010160E6
:103320007047000030B5724B724C41B301295ED03A
:1033300002297DD003297CD1016A21F480510162E8
:10334000C16921F44071C161016A158841EA053102
:103350000162016A21F400510162016A958841EA23
:1033600005310162984201D0A04262D1416821F446
:10337000804141604168128941EA821177E0016A27
:1033800021F001010162816921F003018161016A7B
:10339000158829430162016A21F002010162016A74
:1033A000958829430162984201D0A04260D1016A08
:1033B00021F004010162016A538819430162016A24
:1033C00021F008010162016AD38819430162416852
:1033D00021F480714160416813891943416041685B
:1033E00021F4007141604168528911433FE0016A54
:1033F00021F010010162816921F440718161016A4B
:10340000158841EA05110162016A21F0200101627B
:10341000016A958841EA05110162984201D0A042F3
:1034200026D1016A21F040010162016A538801E05E
:103430001FE01DE041EA03110162016A21F08001F1
:103440000162016AD38841EA03110162416821F4F3
:10345000806141604168138941EA830141604168AC
:1034600021F4006141604168528941EA8201416072
:1034700030BD016A21F480710162C16921F003014C
:10348000C161016A158841EA05210162016A21F4DE
:1034900000710162016A958841EA05210162984242
:1034A00001D0A042E4D1016A21F480610162016A85
:1034B000538841EA03210162016A21F4006101623B
:1034C000016AD38841EA03210162416821F48051F5
:1034D00041604168138941EA03114160416821F468
:1034E000005141604168528941EA0211BFE7000082
:1034F000002C01400034014071B1012913D0022990
:103500001AD0032907D1C16921F4E041C161C16921
:1035100041EA0221C1617047816921F07001816136
:103520008169114306E0816921F4E041816181698B
:1035300041EA022181617047C16921F07001C161D6
:10354000C1691143E6E739B1012907D0022907D043
:10355000032900D102647047426370478263704759
:10356000C263704771B1012913D002291AD003290F
:1035700007D1C16921F40061C161C16941EA022139
:10358000C1617047816921F008018161816911433E
:1035900006E0816921F400618161816941EA0221CB
:1035A00081617047C16921F00801C161C16911439E
:1035B000E6E7016841F001010160704730B50A8813
:1035C00082621C4A1C4B90420DD0B0F1804F0AD051
:1035D0001A4CA04207D01A4CA04204D0194CA04269
:1035E00001D098420BD1046824F070040460046890
:1035F0004D882C43046004688D882C4304608C68DB
:10360000C462114CA0420AD0104CA04207D00468FA
:1036100024F4407404600468CD882C430460904214
:1036200001D0984201D1097B0163416941F0010158
:10363000416130BD002C01400034014000040040D5
:1036400000080040000C0040001000400014004042
:10365000C94301617047C26800690A40084202D04C
:103660000AB1012070470020704700002DE9F043A7
:1036700087B04FF4A060FFF777F8DFF8B090022131
:103680004846FEF77BFB6846FEF7E2FB0121484611
:10369000FEF734FB02214846FEF730FB00242448A5
:1036A0008DF81A4001250290224F8DF819504026BE
:1036B0000097CDE903468DF818404FF440586A460C
:1036C00002214846CDF814800194FEF779FB0221CF
:1036D0004846FEF733FB01214846FEF74FFB68469C
:1036E000FEF7B6FB12488DF81A50403002908DF864
:1036F00019500097CDE903468DF818406A4601211C
:103700004846CDF814800194FEF75AFB0121484643
:10371000FEF7F4FA02214846FEF700FB4021381F6D
:1037200000F064F807B0BDE8F0830000000002403C
:10373000500A00200448004070B5124A04460D4665
:103740000020A11A131594421AD005DC0E49611805
:1037500016D0994208D113E0994211D0B1F56C4FBF
:1037600002D10320FEF784FF00EB5500B0FBF5F01B
:103770004FF6F071014000F00F021143A16070BDDF
:103780000220EFE7004C004000BCFFBF4068C0F3E0
:1037900008007047134A10B5811A1315904213D0D0
:1037A00007DC114940180CD098421AD140F212445B
:1037B0000FE099420BD0B1F56C4F12D140F20E34AC
:1037C00007E040F2114404E040F2134401E040F20B
:1037D00014442046FEF7E4FF2046BDE81040FEF703
:1037E000D1BF10BD004C004000BCFFBF426922F0B9
:1037F00040020A4342617047426922F080020A4354
:1038000042617047C16841F40051C160704700EBEC
:103810009110026801F01F03012199408A43026060
:10382000704700EB9110006801F01F0201219140E8
:10383000084000D00120704700EB9110026801F0B1
:103840001F03012199400A430260704730B5C1F35C
:103850008912825800EB915001F01F05012404FAEF
:1038600005F300681A40C1F3044104FA01F3184259
:1038700002D00AB1012030BD002030BDC26822F064
:1038800004020A43C2607047C26822F008020A4379
:10389000C26070474FF04070E1EE100A704700C1FF
:1038A000814001C0804101C0804100C1814001C010
:1038B000804100C1814000C1814001C0804101C000
:1038C000804100C1814000C1814001C0804100C1F0
:1038D000814001C0804101C0804100C1814001C0E0
:1038E000804100C1814000C1814001C0804100C1D0
:1038F000814001C0804101C0804100C1814000C1C0
:10390000814001C0804101C0804100C1814001C0AF
:10391000804100C1814000C1814001C0804101C09F
:10392000804100C1814000C1814001C0804100C18F
:10393000814001C0804101C0804100C1814000C17F
:10394000814001C0804101C0804100C1814001C06F
:10395000804100C1814000C1814001C0804100C15F
:10396000814001C0804101C0804100C1814001C04F
:10397000804100C1814000C1814001C0804101C03F
:10398000804100C1814000C1814001C0804100C12F
:10399000814001C0804101C0804100C1814000C020
:1039A000C101C30302C2C60607C705C5C404CC0CC7
:1039B0000DCD0FCFCE0E0ACACB0BC90908C8D81837
:1039C00019D91BDBDA1A1EDEDF1FDD1D1CDC14D447
:1039D000D515D71716D6D21213D311D1D010F03077
:1039E00031F133F3F23236F6F737F53534F43CFC87
:1039F000FD3DFF3F3EFEFA3A3BFB39F9F83828E837
:103A0000E929EB2B2AEAEE2E2FEF2DEDEC2CE42406
:103A100025E527E7E62622E2E323E12120E0A06076
:103A200061A163A3A26266A6A767A56564A46CAC46
:103A3000AD6DAF6F6EAEAA6A6BAB69A9A86878B8B6
:103A4000B979BB7B7ABABE7E7FBF7DBDBC7CB474C6
:103A500075B577B7B67672B2B373B17170B0509076
:103A600091519353529296565797559594549C5C06
:103A70005D9D5F9F9E5E5A9A9B5B995958988848B6
:103A800049894B8B8A4A4E8E8F4F8D4D4C8C448486
:103A900085458747468682424383418180400007AF
:103AA0000E091C1B1215383F363124232A2D70773E
:103AB0007E796C6B6265484F464154535A5DE0E72E
:103AC000EEE9FCFBF2F5D8DFD6D1C4C3CACD90979E
:103AD0009E998C8B8285A8AFA6A1B4B3BABDC7C08E
:103AE000C9CEDBDCD5D2FFF8F1F6E3E4EDEAB7B0FE
:103AF000B9BEABACA5A28F88818693949D9A2720EE
:103B0000292E3B3C35321F18111603040D0A57505D
:103B1000595E4B4C45426F68616673747D7A898E3D
:103B2000878095929B9CB1B6BFB8ADAAA3A4F9FEBD
:103B3000F7F0E5E2EBECC1C6CFC8DDDAD3D4696EAD
:103B4000676075727B7C51565F584D4A4344191E1D
:103B5000171005020B0C21262F283D3A33344E490D
:103B6000404752555C5B7671787F6A6D64633E397D
:103B7000303722252C2B0601080F1A1D1413AEA96D
:103B8000A0A7B2B5BCBB9691989F8A8D8483DED9DD
:103B9000D0D7C2C5CCCBE6E1E8EFFAFDF4F3303183
:103BA00032333435363738394142434445460000D4
:103BB00001000200010003000100020001000400F6
:103BC00001000200010003000100020001000500E5
:103BD00001000200010003000100020001000400D6
:103BE00001000200010003000100020001000600C4
:103BF00001000200010003000100020001000400B6
:103C000001000200010003000100020001000500A4
:103C10000100020001000300010002000100040095
:103C20000100020001000300010002000100070082
:103C30000100020001000300010002000100040075
:103C40000100020001000300010002000100050064
:103C50000100020001000300010002000100040055
:103C60000100020001000300010002000100060043
:103C70000100020001000300010002000100040035
:103C80000100020001000300010002000100050024
:103C90000100020001000300010002000100040015
:103CA00001000200010003000100020001003031A8
:103CB00032333435363738396162636465660030D3
:103CC0003132333435363738394142434445460082
:103CD000FF310008F7310008F3310008FB3100081C
:103CE000003D000800000020C80000006C01000832
:103CF000C83D0008C80000208018000088010008A6
:103D000000000000000000000000000000000000B3
:103D100000000000000000000000000000000000A3
:103D20000000000000000000000000000000000093
:103D30000000000000000000000E27070000000047
:103D40000000000000000000010000004C00002006
:103D50004C000020B0000000020000005C000020C9
:103D60005C00002038000000040000006C0000200F
:103D70006C00002038000000050000007C000020DE
:103D80007C000020480000000A0000008C00002099
:103D90008C00002044000000000000000000000033
:103DA0000000000000000000000000000000000013
:103DB0000000000000000000000000000000000003
:083DC0000000000000000000FB
:0400000508000131BD
:00000001FF
